:100000000C9483010C94B4010C94B4010C94B401CD
:100010000C94B4010C94B4010C94B4010C94B4018C
:100020000C94B4010C94B4010C94B4010C94B4017C
:100030000C94B4010C94B4010C94B4010C94B4016C
:100040000C94B4010C94B4010C94B4010C94B4015C
:100050000C94B4010C94B4010C94B4010C94650993
:100060000C94B4010C9432090C945A080C94B40109
:100070000C94B4010C94B4010C94B4010C94B4012C
:100080000C94B4010C94B4010C94B4010C94B4011C
:100090000C94FF080C941B080C94B4010C94B4014C
:1000A0000C94B4010C94B4010C94B4010C94B401FC
:1000B0000C94B4010C94B4010C94B4010C94B401EC
:1000C0000C94B4010C94B4010C94B4010C94CC08BD
:1000D0000C94DC070C94B4010C9499080C949D07C3
:1000E0000C94B4012F0B320B250B290B690B360B2B
:1000F0003A0B400B440B480B4E0B520B560B690B43
:100100005C0B600B640B07634236B79BD8A71A39A8
:10011000685618AEBAAB558C1D3CB7CC5763BD6D55
:10012000EDFD753EF6177231BF000000803F0800FC
:100130000000BE922449123EABAAAA2ABECDCCCC66
:100140004C3E00000080BEABAAAAAA3E0000000000
:10015000BF000000803F0000000000084178D3BBD2
:100160004387D1133D190E3CC3BD4282AD2B3E687F
:10017000EC8276BED98FE1A93E4C80EFFFBE01C470
:10018000FF7F3F00000000000C94560B0C94AF0959
:100190000C94520B0C94B8020C9471020C94690BE1
:1001A0000C944E0B0C94360B0C94480B0C942F0BA8
:1001B0000C94400B0C945C0B0C94320B0C94250BA0
:1001C0000C94600B0C94640B0C94440B0C94290B52
:1001D0000C947C020C949C020C943A0B0C94250217
:1001E0000C94E202000020002300260029002C00CD
:1001F0002F00320000010000030106010901000088
:10020000090A02080B0C0D07060304010000000098
:1002100000000000000000000000000000000000DE
:100220000000000000000000000011100F0000009E
:1002300000000000000000000000000000000000BE
:100240000000000000002200250028002B002E00E6
:100250003100340002010000050108010B0100001B
:100260002100240027002A002D0030003300010166
:100270000000040107010A01050505050705080836
:100280000808020202020A0A080804040404010120
:100290000101010101010303030303030303040735
:1002A00007070C0C0C0C0C0C0C0C020202020606CC
:1002B0000606060606060B0B0B0B0B0B0B0B0102BF
:1002C0001020200808102040102040800201020168
:1002D0000804020101020408102040808040201020
:1002E0000804020180040201804020100804020179
:1002F00008040201010204081020408001020408E1
:1003000010204080AF0911241FBECFEFD1E2DEBF25
:10031000CDBF00E00CBF12E0A0E0B2E0ECE4F3E2FD
:1003200000E00BBF02C007900D92A238B107D9F7C9
:1003300025E0A2E8B2E001C01D92A333B207E1F7C5
:1003400011E0C3E8D1E000E006C021970109802F49
:10035000FE010E946E11C238D10780E00807A9F79C
:100360000E94810A0C94020D0C940000CF93DF933D
:1003700090E0FC01E254FD4F2491FC01E858FD4F50
:1003800084918823C1F090E0880F991FFC01E25A04
:10039000FD4FC591D491FC01EC5BFD4FA591B4914B
:1003A0009FB7F8948881E22FE0958E2388838C9103
:1003B000E823EC939FBFDF91CF910895FC01A489BE
:1003C000B58981E090E09C0100A002C0220F331F9C
:1003D0000A94E2F72C93A089B1891C92A289B3896F
:1003E0002FEC2C9311A2A689B7894C919C01048C07
:1003F00002C0220F331F0A94E2F7242B2C93A68904
:10040000B7894C919C01058C02C0220F331F0A94BE
:10041000E2F7242B2C93A689B7894C919C01068C7A
:1004200002C0220F331F0A94E2F7242B2C93A689D3
:10043000B7892C91078C02C0880F991F0A94E2F7A4
:10044000809582238C93089508950F931F93CF93E3
:10045000DF93FC01A685B7858D01005C1F4FE80185
:100460008881998101968F739927AD014E5B5F4F0B
:10047000EA012881398128173907D1F3E801288159
:100480003981A20FB31F6C93A685B785A05CBF4FBF
:1004900011969C938E93A689B7892C9181E090E068
:1004A000078C02C0880F991F0A94E2F7822B8C9365
:1004B00081E081A30488F589E02D808180648083B8
:1004C00081E090E0DF91CF911F910F910895682F07
:1004D00081E195E00C942502682F8FEE94E00C9456
:1004E0002502FC0181A1882329F0A489B5898C917A
:1004F00086FFFBCF11A20895FC01A485B585FD01FF
:10050000E05CFF4F208131813296808191812817F4
:10051000390779F080819181A80FB91F8C912081D2
:1005200031812F5F3F4F2F7333273183208390E03A
:1005300008958FEF9FEF0895DC011C96ED91FC91DB
:100540001D97DF01A05CBF4F2D913C911197129632
:100550008D919C9111972817390739F08D919C91B5
:10056000E80FF91F808190E008958FEF9FEF0895C5
:10057000FC0124853585F901E05CFF4F8081918184
:10058000329620813181821B930B8F7399270895B6
:10059000FB01E05CFF4F20813181DB01AE5BBF4F8F
:1005A0004D915C912F5F3F4F2F73332742175307B5
:1005B00041F040815181DB01A40FB51F8C93318341
:1005C00020830895CF92DF92EF92FF920F931F93B3
:1005D000CF93DF936C01EB017B01E40EF51E00E08D
:1005E00010E0CE15DF0561F06991D601ED91FC9127
:1005F0000190F081E02DC6011995080F191FF1CF68
:10060000C801DF91CF911F910F91FF90EF90DF9084
:10061000CF9008953FB7F894809187029091880217
:10062000A0918902B0918A0226B5A89B05C02F3FF0
:1006300019F00196A11DB11D3FBFBA2FA92F982F08
:100640008827820F911DA11DB11DBC01CD0142E083
:10065000660F771F881F991F4A95D1F70895CF928B
:10066000DF92EF92FF92CF93DF936B017C010E94A8
:100670000A03EB01C114D104E104F10479F00E94F2
:100680000A036C1B7D0B683E7340A0F381E0C81A1F
:10069000D108E108F108C851DC4FECCFDF91CF91D0
:1006A000FF90EF90DF90CF9008958F929F92AF923E
:1006B000BF92CF92DF92EF92FF92CF93DF934A01E6
:1006C0005B019FB7F894C0908302D0908402E090C1
:1006D0008502F09086029FBFC40ED51EE61EF71E4F
:1006E000C82FD0E081E195E00E94B8028C179D07E9
:1006F000CCF4B7FE07C061E070E080E090E00E94BB
:100700002F03F0CF2FB7F894809183029091840249
:10071000A0918502B09186022FBF8C159D05AE0574
:10072000BF0548F381E195E00E94B80221E08C17F3
:100730009D070CF420E0822FDF91CF91FF90EF9086
:10074000DF90CF90BF90AF909F908F900895CF9201
:10075000DF92EF92FF9281E195E00E947C027C01A2
:1007600081E195E00E947C026C0181E195E00E94AC
:100770007C02A601DD0C660B770B762F652F542FBC
:100780004427092E000CAA0BBB0BDC0199278827F4
:10079000842B952BA62BB72B6701FF0CEE08FF08C7
:1007A000C82AD92AEA2AFB2A81E195E00E947C0224
:1007B000092E000CAA0BBB0BB82FAA279927882754
:1007C000BC01CD016C297D298E299F29FF90EF90D6
:1007D000DF90CF9008951F93CF93DF93172FD82FDB
:1007E000C92F862F660F990B0E946702812F110F68
:1007F000990B0E9467028D2FDD0F990B0E946702F3
:100800008C2FCC0F990BDF91CF911F910C94670225
:100810004F925F926F927F928F929F92AF92BF9210
:10082000EF92FF920F931F93CF93DF93CDB7DEB775
:100830002C970FB6F894DEBF0FBECDBF2B013C0145
:1008400029873A874B875C8761E070E080E090E021
:10085000A80197010E942D116D837E838F83988755
:10086000C301B201A80197010E942D114B015C0147
:1008700029853A854B855C85211531054105510552
:1008800009F48AC020FF42C06D817E818F819885E6
:10089000A80197010E942D1169837A838B839C8321
:1008A000240135011D821E821F82188641145104C5
:1008B0006104710459F140FE14C06D817E818F8105
:1008C000988529813A814B815C81620F731F841F57
:1008D000951FA80197010E942D116D837E838F8340
:1008E000988769817A818B819C81660F771F881F29
:1008F000991FA80197010E942D1169837A838B8328
:100900009C837694679457944794D0CFC501B401E3
:10091000A80197010E942D1169837A838B839C83A0
:10092000412C512C320181149104A104B10429F10C
:1009300080FE0EC069817A818B819C81640D751D5A
:10094000861D971DA80197010E942D112B013C01C6
:1009500069817A818B819C81660F771F881F991F1F
:10096000A80197010E942D1169837A838B839C8350
:10097000B694A79497948794D6CF89859A85AB85AA
:10098000BC85B695A7959795879589879A87AB87F4
:10099000BC87530142016CCF6D817E818F81988528
:1009A0002C960FB6F894DEBF0FBECDBFDF91CF916E
:1009B0001F910F91FF90EF90BF90AF909F908F90FD
:1009C0007F906F905F904F900895009769F0FC01C1
:1009D00001900020E9F73197AF01481B590BBC018A
:1009E0008FEE94E00C94E20280E090E008950F9383
:1009F0001F93CF93DF930E94E5048C018DE00E944A
:100A00006C02EC018AE00E946C02C00FD11F8C0FB7
:100A10009D1FDF91CF911F910F9108952F923F92CB
:100A20004F925F926F927F928F929F92AF92BF92FE
:100A3000CF92DF92EF92FF920F931F93CF93DF93AA
:100A4000CDB7DEB7C854D1400FB6F894DEBF0FBEA5
:100A5000CDBF69017A0169837A838B839C8381E0AE
:100A600090E0A0E0B0E0CF55DF4F88839983AA8360
:100A7000BB83C15AD0402D833E834F835887CB55CB
:100A8000DF4F188219821A821B82C55AD0408E010C
:100A90000F5F1F4F9E012F553F4F1901CF5BDE4F58
:100AA00088839983AA83BB83C154D140D80114960B
:100AB0004D905D906D907C9017971414150416045A
:100AC00017040CF060C08D909D90AD90BC90C50156
:100AD000B401A30192010E944F11CB5BDE4F28832A
:100AE00039834A835B83C554D140CF5BDE4F288175
:100AF00039814A815B81C154D1402F5F3F4F4F4FB5
:100B00005F4FCF5BDE4F288339834A835B83C154B9
:100B1000D140A3019201CB5BDE4F688179818A814C
:100B20009B81C554D1400E940911861A970AA80AD0
:100B3000B90AD80118968D929D92AD92BC921B97DE
:100B4000F1016481758186819781CB5BDE4F2881BD
:100B500039814A815B81C554D1400E94091180804E
:100B60009180A280B380A5019401261B370B480B0E
:100B7000590B20873187428753870C5F1F4FF4E062
:100B80002F0E311C93CFCF5BDE4F88819981AA81D4
:100B9000BB81C154D1400197A109B109880F991FA8
:100BA000880F991FE1EAF0E0EC0FFD1FE80FF91F35
:100BB00080809180A280B380B7FE18C06627772717
:100BC000CB01681979098A099B09A70196010E943E
:100BD0002D112F5F3F4F4F4F5F4FC701B6010E944E
:100BE0000911680D791D8A1D9B1D02C0C501B40144
:100BF000A70196010E942D114B015C016C157D052A
:100C00008E059F0520F080E192E00E94F704B40178
:100C1000C501C85BDE4F0FB6F894DEBF0FBECDBF77
:100C2000DF91CF911F910F91FF90EF90DF90CF90C8
:100C3000BF90AF909F908F907F906F905F904F90FC
:100C40003F902F9008958F929F92AF92BF92EF9214
:100C5000FF920F931F93CF93DF93CDB7DEB7A1978A
:100C60000FB6F894DEBF0FBECDBF162F19A27E01BE
:100C700021E2E20EF11C2AE0822E912CA12CB12C53
:100C8000612FA50194010E942D118AE0289F10195F
:100C90001124E1E0EE1AF1081A3014F4105D01C0DD
:100CA000195CF7011083122F732FCA01232B242BF9
:100CB000252B31F7C7010E94E5047C018DE00E94DD
:100CC0006C028C018AE00E946C02E00EF11E8E0D17
:100CD0009F1DA1960FB6F894DEBF0FBECDBFDF916A
:100CE000CF911F910F91FF90EF90BF90AF909F9089
:100CF0008F9008952F923F924F925F926F927F92C2
:100D00008F929F92AF92BF92CF92DF92EF92FF921B
:100D10000F931F93CF93DF93CDB7DEB72A970FB60C
:100D2000F894DEBF0FBECDBF9A87898732E0232EAD
:100D3000312C9C01032E000C440B550B29833A8364
:100D40004B835C8301969C01990F440B550B2D83BB
:100D50003E834F83588700E010E0C12CD12C7601F0
:100D600049855A850417150774F580917B00877FA4
:100D700080937B0051E450937C0080917A008064E2
:100D800080937A0080917A0086FDFCCF8091780074
:100D90002091790090E0922BB1010E941911CC0CA6
:100DA000DD1CEE1CFF1C892B29F08FEFC81AD80A16
:100DB000E80AF80A65E070E080E090E00E942F0306
:100DC0000F5F1F4FCDCF69817A818B819C810E94FB
:100DD000A80D9B01AC0160E070E080E090E40E940F
:100DE000580E4B015C01C701B6010E94A60DA5017A
:100DF00094010E94060D0E94770D6B017C010E94F8
:100E0000A60D2B013C019B01AC01C501B4010E9460
:100E1000720D18160CF49FCF6D817E818F8198859D
:100E20000E94A80D9B01AC0160E070E080E090E4BE
:100E30000E94580E9B01AC01C301B2010E94720DC9
:100E400087FF89CFC701B6012A960FB6F894DEBF97
:100E50000FBECDBFDF91CF911F910F91FF90EF900B
:100E6000DF90CF90BF90AF909F908F907F906F90CA
:100E70005F904F903F902F9008954F925F926F92A6
:100E80007F928F929F92AF92BF92CF92DF92EF921A
:100E9000FF921F93CF93DF93EC01CE010E947A065D
:100EA0006B017C010E94A60D0E94AE0E2B013C013D
:100EB00082E0882E912CA12CB12C11E0C501B40147
:100EC0000E94A60DA30192010E94720D18168CF0CB
:100ED000C701B601A50194010E942D11672B682B53
:100EE000692B09F410E08FEF881A980AA80AB80A4B
:100EF000E5CF112339F011E081E0C816D104E104F7
:100F0000F10409F410E062E070E080E090E00E94FB
:100F10002F03112311F2C701B601DF91CF911F9169
:100F2000FF90EF90DF90CF90BF90AF909F908F9009
:100F30007F906F905F904F9008951F920F920FB621
:100F40000F9211240BB60F922F933F938F939F9381
:100F5000EF93FF932091CB023091CC028091CD0290
:100F60009091CE022817390731F4809131018F7D9D
:100F70008093310114C0E091CD02F091CE02E5578B
:100F8000FD4F20818091CD029091CE0201968F730A
:100F900099279093CE028093CD0220933601FF9142
:100FA000EF919F918F913F912F910F900BBE0F90DA
:100FB0000FBE0F901F9018951F920F920FB60F92B1
:100FC00011240BB60F922F933F938F939F93EF9320
:100FD000FF932091530330915403809155039091D6
:100FE00056032817390731F48091D1008F7D809303
:100FF000D10014C0E0915503F0915603ED5EFC4F13
:101000002081809155039091560301968F73992703
:1010100090935603809355032093D600FF91EF9150
:101020009F918F913F912F910F900BBE0F900FBE0C
:101030000F901F9018951F920F920FB60F921124C8
:101040000BB60F922F933F938F939F93EF93FF9342
:101050002091FD033091FE038091FF0390910004E5
:101060002817390731F48091C9008F7D8093C9001A
:1010700014C0E091FF03F0910004E354FC4F208181
:101080008091FF039091000401968F7399279093AC
:1010900000048093FF032093CE00FF91EF919F9176
:1010A0008F913F912F910F900BBE0F900FBE0F901D
:1010B0001F9018951F920F920FB60F9211240BB626
:1010C0000F922F933F938F939F93EF93FF932091D2
:1010D000A7043091A8048091A9049091AA0428172C
:1010E000390731F48091C1008F7D8093C10014C015
:1010F000E091A904F091AA04E959FB4F2081809165
:10110000A9049091AA0401968F7399279093AA0439
:101110008093A9042093C600FF91EF919F918F9136
:101120003F912F910F900BBE0F900FBE0F901F900D
:1011300018951F920F920FB60F9211240BB60F92B3
:101140002F933F934F935F936F937F938F939F93CF
:10115000AF93BF93EF93FF938091300182FD07C05F
:10116000809136016FEC72E00E94C80202C080914B
:101170003601FF91EF91BF91AF919F918F917F9138
:101180006F915F914F913F912F910F900BBE0F90F8
:101190000FBE0F901F9018951F920F920FB60F92CF
:1011A00011240BB60F922F933F934F935F936F933E
:1011B0007F938F939F93AF93BF93EF93FF93809110
:1011C000D00082FD07C08091D60067E573E00E94E1
:1011D000C80202C08091D600FF91EF91BF91AF91FC
:1011E0009F918F917F916F915F914F913F912F913F
:1011F0000F900BBE0F900FBE0F901F9018951F926F
:101200000F920FB60F9211240BB60F922F933F93AC
:101210004F935F936F937F938F939F93AF93BF93FE
:10122000EF93FF938091C80082FD07C08091CE00AC
:1012300061E074E00E94C80202C08091CE00FF917C
:10124000EF91BF91AF919F918F917F916F915F913E
:101250004F913F912F910F900BBE0F900FBE0F90AB
:101260001F9018951F920F920FB60F9211240BB674
:101270000F922F933F934F935F936F937F938F932F
:101280009F93AF93BF93EF93FF938091C00082FD34
:1012900007C08091C6006BEA74E00E94C80202C0D9
:1012A0008091C600FF91EF91BF91AF919F918F9177
:1012B0007F916F915F914F913F912F910F900BBE56
:1012C0000F900FBE0F901F9018951F920F920FB6A0
:1012D0000F9211242F933F938F939F93AF93BF93BC
:1012E0008091830290918402A0918502B091860240
:1012F0003091820223E0230F2D3720F40196A11DA7
:10130000B11D05C026E8230F0296A11DB11D209333
:1013100082028093830290938402A0938502B0930B
:1013200086028091870290918802A0918902B091F3
:101330008A020196A11DB11D8093870290938802B5
:10134000A0938902B0938A02BF91AF919F918F9130
:101350003F912F910F900FBE0F901F901895CF9235
:10136000DF92EF92FF92EFEEF4E01382128288EEAA
:10137000C82E83E0D82EE12CF12CC482D582E682DF
:10138000F78264E072E0718360838BEA94E0958772
:10139000848787E694E09787868785EC90E0918B39
:1013A000808B84EC90E0938B828B80EC90E0958B2B
:1013B000848B81EC90E0978B868B82EC90E0918F10
:1013C000808F86EC90E0938F828F44E0448F33E0EF
:1013D000358F27E0268F95E0978F81E080A3E5E4A5
:1013E000F4E013821282C482D582E682F78271838E
:1013F0006083A1E0B4E0B587A487ADEBB3E0B78725
:10140000A687ADECB0E0B18BA08BACECB0E0B38BB9
:10141000A28BA8ECB0E0B58BA48BA9ECB0E0B78BA5
:10142000A68BAAECB0E0B18FA08FAEECB0E0B38F8A
:10143000A28F448F358F268F978F80A3EBE9F3E03F
:1014400013821282C482D582E682F782718360831E
:10145000A7E5B3E0B587A487A3E1B3E0B787A68784
:10146000A5EDB0E0B18BA08BA4EDB0E0B38BA28B67
:10147000A0EDB0E0B58BA48BA1EDB0E0B78BA68B4F
:10148000A2EDB0E0B18FA08FA6EDB0E0B38FA28F38
:10149000448F358F268F978F80A3E1E1F5E013828B
:1014A0001282C482D582E682F782718360836FECF8
:1014B00072E0758764876BE872E07787668765E31B
:1014C00071E0718B608B64E371E0738B628B60E31E
:1014D00071E0758B648B61E371E0778B668B62E3FF
:1014E00071E0718F608F66E371E0738F628F448F5C
:1014F000358F268F978F80A3FF90EF90DF90CF904E
:101500000895CF93DF93CDB7DEB72A970FB6F8943F
:10151000DEBF0FBECDBF789484B5826084BD84B534
:10152000816084BD85B5826085BD85B5816085BDDE
:1015300080916E00816080936E0010928100809196
:10154000810082608093810080918100816080931E
:101550008100809180008160809380008091B10043
:1015600084608093B1008091B00081608093B0006E
:1015700080919100826080939100809191008160C0
:101580008093910080919000816080939000809181
:10159000A10082608093A1008091A100816080936E
:1015A000A1008091A00081608093A0008091210122
:1015B00082608093210180912101816080932101CB
:1015C0008091200181608093200180917A00846065
:1015D00080937A0080917A00826080937A00809173
:1015E0007A00816080937A0080917A00806880938D
:1015F0007A001092C1008FEE94E00E94DE0181E13A
:1016000095E00E94DE0181E00E94B6018DE00E941B
:10161000B601EBE0F2E04491EBECF2E02491E5E876
:10162000F2E09491992309F4DFC0442309F451C0F6
:1016300050E0FA013197E131F10508F04AC08827FE
:10164000EE58FF4F8F4F0C946E11809180008F7772
:1016500003C0809180008F7D809380003AC084B564
:101660008F7702C084B58F7D84BD33C08091B00078
:101670008F7703C08091B0008F7D8093B00029C028
:10168000809190008F7707C0809190008F7D03C07C
:1016900080919000877F809390001BC08091A00074
:1016A0008F7707C08091A0008F7D03C08091A0003C
:1016B000877F8093A0000DC0809120018F7707C0A5
:1016C000809120018F7D03C080912001877F8093CE
:1016D0002001E92FF0E0EE0FFF1FEC51FE4FA59126
:1016E000B491EC91E22309F47FC0332433948EE06B
:1016F00090E00E943D074B015C018FE090E00E946A
:101700003D072B013C01A50194010E940911698349
:101710007A838B839C8389E292E00E94E50469814D
:101720007A818B819C810E942306A3019201215022
:10173000310941095109C501B4016150710981099B
:1017400091090E9409114B015C018FE090E00E9419
:101750007A066B0189879A87240135014114510467
:101760006104710469F0A30192010E942D118B01A3
:101770009C0122273327C301B20128013901EECF92
:10178000DC01CB01AA27BB270197A105B105E9F62A
:101790008EE392E00E94E504B60189859A850E9455
:1017A0002306E980FA800B811C819401A501B60112
:1017B00089859A850E940E056D837E838F83988725
:1017C0008BE492E00E94E5046D817E818F81988593
:1017D0000E942306332009F4E3C0412C512C32012E
:1017E000812C912C54011CC0312C81CF0530110566
:1017F00009F457C00230110509F46CC0033011051B
:1018000091F00430110509F10130110579F748EE26
:1018100053E060E070E081E00E945503811136C022
:1018200003E010E0EBCF4FEF5FEFBA0181E00E94E1
:101830005503882319F381E195E00E947C028334EB
:101840009105E1F604E010E0D9CF48EE53E060E006
:1018500070E088E00E945503882311F30E94A703DB
:101860004B015C010E94A7032B013C0181E490E045
:101870000E946702B60189859A850E94EB036981FF
:101880007A818B819C810E94EB031DC081E195E0F0
:101890000E947C028134F1F0833411F605E010E0FF
:1018A000ADCF48EE53E060E070E088E00E94550361
:1018B000882309F4B5CF0E94A7034B015C010E9465
:1018C000A7032B013C0101E010E098CF81E490E0F8
:1018D0000E94670289E592E00E94F70481E195E0A9
:1018E0000E94B802892B61F081E195E00E947C02A0
:1018F000F5CF8FEE94E00E94B80218161906B4F0E6
:1019000081E195E00E94B80204979CF30E94A7032E
:10191000E980FA800B811C812D813E814F815885A1
:101920000E940804862F0E946C02E3CF8FEE94E0A1
:101930000E947C0289878D30C1F40E946C02830171
:101940007201A50194016DE070E080E090E00E94DA
:1019500008040E94EB038AE00E946C02A501940136
:101960006AE070E080E090E00DC089850E946C0222
:101970002985622F220F770B880B990B8301720147
:10198000A50194010E9408040E94EB03B9CF48EE20
:1019900053E060E070E089E00E945503811116C0B9
:1019A00080E090E0892B99F783E490E00E94670241
:1019B000B60189859A850E94EB0369817A818B81C2
:1019C0009C810E94EB0381E090E0ECCF81E195E007
:1019D0000E947C028134910519F70E94A7034B01F4
:1019E0005C010E94A7032B013C0181E195E00E946C
:1019F000B802181619060CF069CF81E195E00E9433
:101A00007C02F3CFF8940C94A4115058BB27AA275A
:101A10000E941D0D0C941E0E0E94100E38F00E94A4
:101A2000170E20F039F49F3F19F426F40C940D0E94
:101A30000EF4E095E7FB0C94070EE92F0E942F0EA1
:101A400058F3BA17620773078407950720F079F4F3
:101A5000A6F50C94510E0EF4E0950B2EBA2FA02D86
:101A60000B01B90190010C01CA01A0011124FF274B
:101A7000591B99F0593F50F4503E68F11A16F04046
:101A8000A22F232F342F4427585FF3CF4695379545
:101A90002795A795F0405395C9F77EF41F16BA0B0A
:101AA000620B730B840BBAF09150A1F0FF0FBB1FB8
:101AB000661F771F881FC2F70EC0BA0F621F731F01
:101AC000841F48F4879577956795B795F7959E3F5E
:101AD00008F0B0CF9395880F08F09927EE0F9795EF
:101AE000879508950E94E30D08F481E008950E940F
:101AF000370E88F09F5798F0B92F9927B751B0F05B
:101B0000E1F0660F771F881F991F1AF0BA95C9F781
:101B100014C0B13091F00E94510EB1E008950C94C0
:101B2000510E672F782F8827B85F39F0B93FCCF373
:101B3000869577956795B395D9F73EF490958095FE
:101B4000709561957F4F8F4F9F4F0895E89409C01E
:101B500097FB3EF490958095709561957F4F8F4FE0
:101B60009F4F9923A9F0F92F96E9BB279395F695F6
:101B7000879577956795B795F111F8CFFAF4BB0F74
:101B800011F460FF1BC06F5F7F4F8F4F9F4F16C0D8
:101B9000882311F096E911C0772321F09EE8872F62
:101BA000762F05C0662371F096E8862F70E060E01E
:101BB0002AF09A95660F771F881FDAF7880F969597
:101BC000879597F90895990F0008550FAA0BE0E83B
:101BD000FEEF16161706E807F907C0F012161306EF
:101BE000E407F50798F0621B730B840B950B39F42F
:101BF0000A2661F0232B242B252B21F408950A2695
:101C000009F4A140A6958FEF811D811D089597F9D4
:101C10009F6780E870E060E008959FEF80EC089592
:101C200000240A94161617061806090608950024BB
:101C30000A9412161306140605060895092E039435
:101C4000000C11F4882352F0BB0F40F4BF2B11F4A9
:101C500060FF04C06F5F7F4F8F4F9F4F089557FD08
:101C60009058440F551F59F05F3F71F04795880F0A
:101C700097FB991F61F09F3F79F0879508951216A1
:101C800013061406551FF2CF4695F1DF08C016164D
:101C900017061806991FF1CF8695710561050894FE
:101CA0000895E894BB2766277727CB0197F9089515
:101CB000FA01EE0FFF1F309621053105A1F16115E4
:101CC000710561F48038BFE39B0749F1689490384F
:101CD000810561F08038BFEF9B0741F099234AF5F9
:101CE000FF3FE1053105210519F1E8940894E795D6
:101CF000D901AA2329F4AB2FBE2FF85FD0F310C06F
:101D0000FF5F70F4A695E0F7F73950F019F0FF3A4D
:101D100038F49F779F930DD00F9007FC905808954B
:101D200046F00C940D0E60E070E080E89FE30895AB
:101D30004FE79F775F934F933F932F930E94AE0F90
:101D40002F913F914F915F910E942A100C94F60EB3
:101D500019F416F40C940D0E0C94280F0E94370EF3
:101D6000B8F39923C9F3B6F39F57550B87FF0E9429
:101D7000360F0024A0E640EA9001805856959795CA
:101D800028F4805C660F771F881F20F0261737071E
:101D9000480730F4621B730B840B202931294A2B2E
:101DA000A69517940794202531254A2758F7660FE2
:101DB000771F881F20F026173707480730F4620B7B
:101DC000730B840B200D311D411DA09581F7B901C6
:101DD000842F9158880F96958795089529F416F0C9
:101DE0000C94070E0C94510E0C940D0E0E94370E9D
:101DF000A8F39638A0F707F80F92E8942BE33AEA95
:101E000048EB5FE70E9440100F920F920F924DB780
:101E10005EB70F920E94F60FE6E0F1E00E943D0FE0
:101E20004F915F91EF91FF91E595EE1FFF1F49F0F4
:101E3000FE57E0684427EE0F441FFA95E1F74195FD
:101E4000550B0E94700F0F9007FE0C94640F0895BD
:101E50009F3F31F0915020F4879577956795B7951E
:101E6000880F911D9695879597F908959150504048
:101E7000660F771F881FD2F70895DF93CF931F93C4
:101E80000F93FF92EF92DF927B018C01689406C062
:101E9000DA2EEF010E943D10FE01E894A5912591F4
:101EA000359145915591A6F3EF010E941D0DFE015C
:101EB0009701A801DA9469F7DF90EF90FF900F91F6
:101EC0001F91CF91DF9108959B01AC0160E070E01C
:101ED00080E89FE30C9497100C94070E0C94280F45
:101EE0000E94370ED8F39923C9F3940F511DA3F321
:101EF0009150504094F059F0882332F0660F771FCC
:101F0000881F91505040C1F79E3F51052CF7880F14
:101F1000911D9695879597F908955F3FACF0983E8F
:101F20009CF0BB27869577956795B79508F4B160C7
:101F30009395C1F7BB0F58F711F460FFE8CF6F5FBF
:101F40007F4F8F4F9F4FE3CF0C94520E16F00C949F
:101F5000280F0C940D0E68940C94070E0E94370EF7
:101F6000A8F39923C1F3AEF3DF93CF931F930F939D
:101F7000FF92C92FDD2788232AF02197660F771F4C
:101F8000881FDAF720E030E040E85FEB9FE3883914
:101F900020F0803E38F021968F770E94060DEEE209
:101FA000F1E004C00E94060DEBE5F1E00E943D0F58
:101FB0008B01BE01EC01FB2E6F5771097595771FE0
:101FC000880B990B0E94A80D28E132E741E35FE3FB
:101FD0000E943D10AF2D9801AE01FF900F911F910F
:101FE000CF91DF910E941D0D0C941E0EFA01DC01B1
:101FF000AA0FBB1F9B01AC01BF5728F42227332730
:102000004427507820C0B75190F4AB2F0024469558
:1020100037952795011CA395D2F3002071F0220F6C
:10202000331F441FB395DAF30ED00C94050D6130C5
:102030007105A0E88A07B94630F49B01AC01662718
:10204000772788279078309621F020833183428348
:10205000538308950E943D100C941E0E0E94100E92
:1020600038F00E94170E20F0952311F00C94070E03
:102070000C940D0E11240C94520E0E942F0E70F32E
:10208000959FC1F3950F50E0551F629FF001729F1D
:10209000BB27F00DB11D639FAA27F00DB11DAA1F2C
:1020A000649F6627B00DA11D661F829F2227B00D79
:1020B000A11D621F739FB00DA11D621F839FA00D04
:1020C000611D221F749F3327A00D611D231F849F54
:1020D000600D211D822F762F6A2F11249F575040AB
:1020E0009AF0F1F088234AF0EE0FFF1FBB1F661F26
:1020F000771F881F91505040A9F79E3F510580F0EF
:102100000C94070E0C94520E5F3FE4F3983ED4F308
:10211000869577956795B795F795E7959F5FC1F792
:10212000FE2B880F911D9695879597F908950E942B
:10213000AB100C941E0E0E94170E58F00E94100E49
:1021400040F029F45F3F29F00C94070E51110C94D4
:10215000520E0C940D0E0E942F0E68F39923B1F3CA
:10216000552391F3951B550BBB27AA2762177307BD
:10217000840738F09F5F5F4F220F331F441FAA1F51
:10218000A9F335D00E2E3AF0E0E832D0915050400D
:10219000E695001CCAF72BD0FE2F29D0660F771FBB
:1021A000881FBB1F261737074807AB07B0E809F0A1
:1021B000BB0B802DBF01FF2793585F4F3AF09E3F26
:1021C000510578F00C94070E0C94520E5F3FE4F327
:1021D000983ED4F3869577956795B795F7959F5F69
:1021E000C9F7880F911D9695879597F90895E1E0B5
:1021F000660F771F881FBB1F621773078407BA0714
:1022000020F0621B730B840BBA0BEE1F88F7E0956E
:102210000895DB018F939F930E947611BF91AF9138
:10222000A29F800D911DA39F900DB29F900D112430
:10223000089597FB072E16F4009407D077FD09D078
:102240000E94811107FC05D03EF4909581959F4F27
:102250000895709561957F4F0895A1E21A2EAA1BEB
:10226000BB1BFD010DC0AA1FBB1FEE1FFF1FA21746
:10227000B307E407F50720F0A21BB30BE40BF50B43
:10228000661F771F881F991F1A9469F760957095CC
:10229000809590959B01AC01BD01CF010895052E5D
:1022A00097FB1EF400940E94661157FD07D00E9410
:1022B0002D1107FC03D04EF40C94661150954095F7
:1022C000309521953F4F4F4F5F4F089590958095E2
:1022D000709561957F4F8F4F9F4F0895EE0FFF1FB1
:1022E000881F8BBF0790F691E02D19940E949511DD
:1022F000A59F900DB49F900DA49F800D911D11245A
:102300000895AA1BBB1B51E107C0AA1FBB1FA6173C
:10231000B70710F0A61BB70B881F991F5A95A9F78E
:1023200080959095BC01CD010895A29FB001B39F07
:10233000C001A39F700D811D1124911DB29F700DCE
:0C234000811D1124911D0895F894FFCF19
:10234C00000000002502E202B8027C029C0271022D
:10235C00507269766174655F6B657920646F6D612D
:10236C00696E206572726F720054686973206172B5
:10237C006475696E6F2773206D6F643A2000507519
:10238C00626C6963206B65793A20005072697661E2
:10239C007465206B65793A200048616E64736861DE
:1023AC006B6520636F6D706C6574652C2072656154
:1023BC00647920746F20636F6D6D756E69636174E1
:0223CC006500AA
:00000001FF
