:100000000C9483010C94B4010C94B4010C94B401CD
:100010000C94B4010C94B4010C94B4010C94B4018C
:100020000C94B4010C94B4010C94B4010C94B4017C
:100030000C94B4010C94B4010C94B4010C94B4016C
:100040000C94B4010C94B4010C94B4010C94B4015C
:100050000C94B4010C94B4010C94B4010C943508C4
:100060000C94B4010C9402080C942A070C94B4016B
:100070000C94B4010C94B4010C94B4010C94B4012C
:100080000C94B4010C94B4010C94B4010C94B4011C
:100090000C94CF070C94EB060C94B4010C94B401AF
:1000A0000C94B4010C94B4010C94B4010C94B401FC
:1000B0000C94B4010C94B4010C94B4010C94B401EC
:1000C0000C94B4010C94B4010C94B4010C949C07EE
:1000D0000C94AC060C94B4010C9469070C946D0656
:1000E0000C94B4016A0A6D0A600A640AA40A710ACF
:1000F000750A7B0A7F0A830A890A8D0A910AA40A73
:10010000970A9B0A9F0A07634236B79BD8A71A39FA
:10011000685618AEBAAB558C1D3CB7CC5763BD6D55
:10012000EDFD753EF6177231BF000000803F0800FC
:100130000000BE922449123EABAAAA2ABECDCCCC66
:100140004C3E00000080BEABAAAAAA3E0000000000
:10015000BF000000803F0000000000084178D3BBD2
:100160004387D1133D190E3CC3BD4282AD2B3E687F
:10017000EC8276BED98FE1A93E4C80EFFFBE01C470
:10018000FF7F3F00000000000C94970A0C949B0A2C
:100190000C943F020C947F080C94640A0C946A0A35
:1001A0000C94710A0C945B020C948D0A0C94890ACD
:1001B0000C94910A0C947F0A0C9414020C94A40AD7
:1001C0000C946D0A0C947B0A0C941F020C94750A13
:1001D0000C949F0A0C94B7010C9485020C94600A4D
:1001E0000C94830A00002200250028002B002E001A
:1001F0003100340002010000050108010B0100007C
:100200002100240027002A002D00300033000101C6
:100210000000040107010A0100002000230026005D
:1002200029002C002F00320000010000030106010C
:10023000090105050505070508080808020202026C
:100240000A0A080804040404010101010101010172
:100250000303030303030303040707070C0C0C0C3D
:100260000C0C0C0C02020202060606060606060626
:100270000B0B0B0B0B0B0B0B0102102020080810B3
:100280002040102040800201020108040201010206
:1002900004081020408080402010080402018004DF
:1002A000020180402010080402010804020101023A
:1002B0000408102040800102040810204080000043
:1002C000090A02080B0C0D070603040100000000D8
:1002D000000000000000000000000000000000001E
:1002E0000000000000000000000011100F000000DE
:1002F00000000000000000000000000000000000FE
:10030000000000007F0811241FBECFEFD1E2DEBF46
:10031000CDBF00E00CBF12E0A0E0B2E0ECECF2E2F6
:1003200000E00BBF02C007900D92A83DB107D9F7BE
:1003300025E0A8EDB2E001C01D92A938B207E1F7AF
:1003400011E0C3E8D1E000E006C021970109802F49
:10035000FE010E942E11C238D10780E00807A9F7DC
:100360000E9451090C94BD0C0C94000008950F9349
:100370001F93CF93DF93FC01A685B7858D01005CA9
:100380001F4FE8018881998101968F739927AD01EC
:100390004E5B5F4FEA012881398128173907D1F375
:1003A000E80128813981A20FB31F6C93A685B78518
:1003B000A05CBF4F11969C938E93A689B7892C9110
:1003C00081E090E0078C02C0880F991F0A94E2F741
:1003D000822B8C9381E081A30488F589E02D8081B4
:1003E0008064808381E090E0DF91CF911F910F9135
:1003F000089587E695E00C94B701682F85E495E0B1
:100400000C94B701CF93DF936DE087E695E00E94EF
:10041000B701EC016AE087E695E00E94B7018C0F16
:100420009D1FDF91CF910895FC0181A1882329F0C0
:10043000A489B5898C9186FFFBCF11A20895FC0198
:10044000A485B585FD01E05CFF4F208131813296A6
:10045000808191812817390779F080819181A80FD7
:10046000B91F8C91208131812F5F3F4F2F7333272C
:100470003183208390E008958FEF9FEF0895DC0192
:100480001C96ED91FC911D97DF01A05CBF4F2D9153
:100490003C91119712968D919C91119728173907CD
:1004A00039F08D919C91E80FF91F808190E00895BB
:1004B0008FEF9FEF0895FC0124853585F901E05CFD
:1004C000FF4F80819181329620813181821B930B75
:1004D0008F7399270895FB01E05CFF4F20813181E4
:1004E000DB01AE5BBF4F4D915C912F5F3F4F2F7390
:1004F00033274217530741F040815181DB01A40F9C
:10050000B51F8C93318320830895CF92DF92EF92B1
:10051000FF920F931F93CF93DF936C01EB017B014D
:10052000E40EF51E00E010E0CE15DF0561F06991E4
:10053000D601ED91FC910190F081E02DC601199555
:10054000080F191FF1CFC801DF91CF911F910F91B3
:10055000FF90EF90DF90CF9008953FB7F89480918F
:10056000D9029091DA02A091DB02B091DC0226B5AB
:10057000A89B05C02F3F19F00196A11DB11D3FBFDB
:10058000BA2FA92F982F8827820F911DA11DB11D69
:10059000BC01CD0142E0660F771F881F991F4A9565
:1005A000D1F70895CF92DF92EF92FF92CF93DF932E
:1005B0006B017C010E94AD02EB01C114D104E10486
:1005C000F10479F00E94AD026C1B7D0B683E734014
:1005D000A0F381E0C81AD108E108F108C851DC4F46
:1005E000ECCFDF91CF91FF90EF90DF90CF90089507
:1005F000CF93C82F8FB7F894409141055091420591
:1006000060914305709144058FBF68EE73E080E010
:1006100090E00E94D20285E495E00E945B022C2FBC
:1006200030E041E0821793070CF440E0842FCF9133
:100630000895CF92DF92EF92FF9285E495E00E94B9
:100640001F027C0185E495E00E941F026C0185E495
:1006500095E00E941F02A601DD0C660B770B762F3A
:10066000652F542F4427092E000CAA0BBB0BDC016D
:1006700099278827842B952BA62BB72B6701FF0C76
:10068000EE08FF08C82AD92AEA2AFB2A85E495E061
:100690000E941F02092E000CAA0BBB0BB82FAA2721
:1006A00099278827BC01CD016C297D298E299F2996
:1006B000FF90EF90DF90CF9008950F931F93CF930B
:1006C000DF938B01D82FC92F85E495E00E94140297
:1006D000802F000F990B0E94FD01812F110F990BA4
:1006E0000E94FD018D2FDD0F990B0E94FD018C2FC3
:1006F000CC0F990BDF91CF911F910F910C94FD01BD
:100700006115710551F0FB0101900020E9F7319767
:10071000AF01461B570B0C94850280E090E00895D2
:10072000CF93DF93BC0187E695E00E948003EC0144
:100730000E9402028C0F9D1FDF91CF9108952F928E
:100740003F924F925F926F927F928F929F92AF9261
:10075000BF92CF92DF92EF92FF920F931F93CF93AE
:10076000DF93CDB7DEB7C854D1400FB6F894DEBFE3
:100770000FBECDBF69017A0169837A838B839C8325
:1007800081E090E0A0E0B0E0CF55DF4F888399830F
:10079000AA83BB83C15AD0402D833E834F835887A1
:1007A000CB55DF4F188219821A821B82C55AD0405E
:1007B0008E010F5F1F4F9E012F553F4F1901CF5BD9
:1007C000DE4F88839983AA83BB83C154D140D8016B
:1007D00014964D905D906D907C90179714141504AD
:1007E000160417040CF060C08D909D90AD90BC90E5
:1007F000C501B401A30192010E940F11CB5BDE4F32
:10080000288339834A835B83C554D140CF5BDE4F55
:10081000288139814A815B81C154D1402F5F3F4F8C
:100820004F4F5F4FCF5BDE4F288339834A835B8313
:10083000C154D140A3019201CB5BDE4F6881798125
:100840008A819B81C554D1400E94C910861A970A9B
:10085000A80AB90AD80118968D929D92AD92BC92C1
:100860001B97F1016481758186819781CB5BDE4F97
:10087000288139814A815B81C554D1400E94C910C9
:1008800080809180A280B380A5019401261B370B44
:10089000480B590B20873187428753870C5F1F4FC6
:1008A000F4E02F0E311C93CFCF5BDE4F888199810E
:1008B000AA81BB81C154D1400197A109B109880F18
:1008C000991F880F991FE1EAF0E0EC0FFD1FE80F78
:1008D000F91F80809180A280B380B7FE18C0662780
:1008E0007727CB01681979098A099B09A701960125
:1008F0000E94ED102F5F3F4F4F4F5F4FC701B60172
:100900000E94C910680D791D8A1D9B1D02C0C5017A
:10091000B401A70196010E94ED104B015C016C151A
:100920007D058E059F0520F080E192E00E949003F6
:10093000B401C501C85BDE4F0FB6F894DEBF0FBE31
:10094000CDBFDF91CF911F910F91FF90EF90DF907E
:10095000CF90BF90AF909F908F907F906F905F905F
:100960004F903F902F9008958F929F92AF92BF9299
:10097000CF92DF92EF92FF920F931F93CF93DF936B
:10098000CDB7DEB7A1970FB6F894DEBF0FBECDBFCF
:100990006C01142FE52FCB01022F19A2223008F48D
:1009A0000AE07E0121E2E20EF11C802E912CA12CA6
:1009B000B12C612F7E2FA50194010E94ED10029FA2
:1009C0001019112481E0E81AF1081A3014F4105DAE
:1009D00001C0195CF7011083122FE32FCA01232BEA
:1009E000242B252B31F7B701C6010E948003A19665
:1009F0000FB6F894DEBF0FBECDBFDF91CF911F9130
:100A00000F91FF90EF90DF90CF90BF90AF909F90AD
:100A10008F900895CF92DF92EF92FF920F931F93E2
:100A2000CF93DF93EC016A017B016DE20E94B70175
:100A30008C0144275527BA014C195D096E097F09BD
:100A40002AE0CE010E94B404800F911FDF91CF9164
:100A50001F910F91FF90EF90DF90CF900895AB0121
:100A6000770F660B770B77FD0C940A052AE00C9440
:100A7000B404CF93DF93AB01BC012AE087E695E095
:100A80000E94B404EC010E9402028C0F9D1FDF91B2
:100A9000CF9108952F923F924F925F926F927F92E3
:100AA0008F929F92AF92BF92CF92DF92EF92FF927E
:100AB0000F931F93CF93DF93CDB7DEB72A970FB66F
:100AC000F894DEBF0FBECDBF9A87898732E0232E10
:100AD000312C9C01032E000C440B550B29833A83C7
:100AE0004B835C8301969C01990F440B550B2D831E
:100AF0003E834F83588700E010E0C12CD12C760153
:100B000049855A850417150774F580917B00877F06
:100B100080937B0051E450937C0080917A00806444
:100B200080937A0080917A0086FDFCCF80917800D6
:100B30002091790090E0922BB1010E94D910CC0C49
:100B4000DD1CEE1CFF1C892B29F08FEFC81AD80A78
:100B5000E80AF80A65E070E080E090E00E94D202C6
:100B60000F5F1F4FCDCF69817A818B819C810E945D
:100B7000630D9B01AC0160E070E080E090E40E94B6
:100B8000180E4B015C01C701B6010E94610DA50161
:100B900094010E94C10C0E94320D6B017C010E94E5
:100BA000610D2B013C019B01AC01C501B4010E9408
:100BB0002D0D18160CF49FCF6D817E818F81988545
:100BC0000E94630D9B01AC0160E070E080E090E466
:100BD0000E94180E9B01AC01C301B2010E942D0DB1
:100BE00087FF89CFC701B6012A960FB6F894DEBFFA
:100BF0000FBECDBFDF91CF911F910F91FF90EF906E
:100C0000DF90CF90BF90AF909F908F907F906F902C
:100C10005F904F903F902F9008954F925F926F9208
:100C20007F928F929F92AF92BF92CF92DF92EF927C
:100C3000FF921F93CF93DF93EC01CE010E944A05F0
:100C40006B017C010E94610D0E946E0E2B013C0124
:100C500082E0882E912CA12CB12C11E0C501B401A9
:100C60000E94610DA30192010E942D0D18168CF0B7
:100C7000C701B601A50194010E94ED10672B682BF6
:100C8000692B09F410E08FEF881A980AA80AB80AAD
:100C9000E5CF112339F011E081E0C816D104E10459
:100CA000F10409F410E062E070E080E090E00E945E
:100CB000D202112311F2C701B601DF91CF911F912A
:100CC000FF90EF90DF90CF90BF90AF909F908F906C
:100CD0007F906F905F904F9008951F920F920FB684
:100CE0000F9211240BB60F922F933F938F939F93E4
:100CF000EF93FF9320911D0330911E0380911F03FA
:100D0000909120032817390731F4809131018F7DAC
:100D10008093310114C0E0911F03F0912003E3524E
:100D2000FD4F208180911F039091200301968F73C6
:100D300099279093200380931F0320933601FF91FE
:100D4000EF919F918F913F912F910F900BBE0F903C
:100D50000FBE0F901F9018951F920F920FB60F9213
:100D600011240BB60F922F933F938F939F93EF9382
:100D7000FF932091A5033091A6038091A703909142
:100D8000A8032817390731F48091D1008F7D809313
:100D9000D10014C0E091A703F091A803EB59FC4FD8
:100DA00020818091A7039091A80301968F739927C2
:100DB0009093A8038093A7032093D600FF91EF910F
:100DC0009F918F913F912F910F900BBE0F900FBE6F
:100DD0000F901F9018951F920F920FB60F9211242B
:100DE0000BB60F922F933F938F939F93EF93FF93A5
:100DF00020914F04309150048091510490915204FD
:100E00002817390731F48091C9008F7D8093C9007C
:100E100014C0E0915104F0915204E15FFB4F208136
:100E2000809151049091520401968F739927909369
:100E30005204809351042093CE00FF91EF919F9133
:100E40008F913F912F910F900BBE0F900FBE0F907F
:100E50001F9018951F920F920FB60F9211240BB688
:100E60000F922F933F938F939F93EF93FF93209134
:100E7000F9043091FA048091FB049091FC04281746
:100E8000390731F48091C1008F7D8093C10014C077
:100E9000E091FB04F091FC04E754FB4F208180912A
:100EA000FB049091FC0401968F7399279093FC04A6
:100EB0008093FB042093C600FF91EF919F918F9147
:100EC0003F912F910F900BBE0F900FBE0F901F9070
:100ED00018951F920F920FB60F9211240BB60F9216
:100EE0002F933F934F935F936F937F938F939F9332
:100EF000AF93BF93EF93FF938091300182FD07C0C2
:100F00008091360161E273E00E946B0202C0809121
:100F10003601FF91EF91BF91AF919F918F917F919A
:100F20006F915F914F913F912F910F900BBE0F905A
:100F30000FBE0F901F9018951F920F920FB60F9231
:100F400011240BB60F922F933F934F935F936F93A0
:100F50007F938F939F93AF93BF93EF93FF93809172
:100F6000D00082FD07C08091D60069EA73E00E943C
:100F70006B0202C08091D600FF91EF91BF91AF91BB
:100F80009F918F917F916F915F914F913F912F91A1
:100F90000F900BBE0F900FBE0F901F9018951F92D1
:100FA0000F920FB60F9211240BB60F922F933F930F
:100FB0004F935F936F937F938F939F93AF93BF9361
:100FC000EF93FF938091C80082FD07C08091CE000F
:100FD00063E574E00E946B0202C08091CE00FF9135
:100FE000EF91BF91AF919F918F917F916F915F91A1
:100FF0004F913F912F910F900BBE0F900FBE0F900E
:101000001F9018951F920F920FB60F9211240BB6D6
:101010000F922F933F934F935F936F937F938F9391
:101020009F93AF93BF93EF93FF938091C00082FD96
:1010300007C08091C6006DEF74E00E946B0202C091
:101040008091C600FF91EF91BF91AF919F918F91D9
:101050007F916F915F914F913F912F910F900BBEB8
:101060000F900FBE0F901F9018951F920F920FB602
:101070000F9211242F933F938F939F93AF93BF931E
:101080008091410590914205A0914305B09144059E
:101090003091D80223E0230F2D3720F40196A11DB3
:1010A000B11D05C026E8230F0296A11DB11D209396
:1010B000D8028093410590934205A0934305B093D5
:1010C00044058091D9029091DA02A091DB02B0919F
:1010D000DC020196A11DB11D8093D9029093DA0222
:1010E000A093DB02B093DC02BF91AF919F918F91EF
:1010F0003F912F910F900FBE0F901F901895CF9298
:10110000DF92EF92FF92E7E6F5E01382128288EE1B
:10111000C82E83E0D82EE12CF12CC482D582E68241
:10112000F78264E072E0718360838DEF94E09587CD
:10113000848789EB94E09787868785EC90E0918B94
:10114000808B84EC90E0938B828B80EC90E0958B8D
:10115000848B81EC90E0978B868B82EC90E0918F72
:10116000808F86EC90E0938F828F44E0448F33E051
:10117000358F27E0268F95E0978F81E080A3E7E900
:10118000F4E013821282C482D582E682F7827183F0
:101190006083A3E5B4E0B587A487AFE0B4E0B78788
:1011A000A687ADECB0E0B18BA08BACECB0E0B38B1C
:1011B000A28BA8ECB0E0B58BA48BA9ECB0E0B78B08
:1011C000A68BAAECB0E0B18FA08FAEECB0E0B38FED
:1011D000A28F448F358F268F978F80A3EDEEF3E09B
:1011E00013821282C482D582E682F7827183608381
:1011F000A9EAB3E0B587A487A5E6B3E0B787A687D9
:10120000A5EDB0E0B18BA08BA4EDB0E0B38BA28BC9
:10121000A0EDB0E0B58BA48BA1EDB0E0B78BA68BB1
:10122000A2EDB0E0B18FA08FA6EDB0E0B38FA28F9A
:10123000448F358F268F978F80A3E5E4F5E01382E6
:101240001282C482D582E682F7827183608361E272
:1012500073E0758764876DED72E07787668765E375
:1012600071E0718B608B64E371E0738B628B60E380
:1012700071E0758B648B61E371E0778B668B62E361
:1012800071E0718F608F66E371E0738F628F448FBE
:10129000358F268F978F80A3FF90EF90DF90CF90B0
:1012A0000895CF93DF93CDB7DEB760970FB6F8946C
:1012B000DEBF0FBECDBF789484B5826084BD84B597
:1012C000816084BD85B5826085BD85B5816085BD41
:1012D00080916E00816080936E00109281008091F9
:1012E0008100826080938100809181008160809381
:1012F0008100809180008160809380008091B100A6
:1013000084608093B1008091B00081608093B000D0
:101310008091910082608093910080919100816022
:1013200080939100809190008160809390008091E3
:10133000A10082608093A1008091A10081608093D0
:10134000A1008091A00081608093A0008091210184
:10135000826080932101809121018160809321012D
:101360008091200181608093200180917A008460C7
:1013700080937A0080917A00826080937A008091D5
:101380007A00816080937A0080917A0080688093EF
:101390007A001092C100E0917B05F0917C0581E01C
:1013A00090E09C010090870502C0220F331F0A9431
:1013B000E2F72083E0917705F09178051082E091C3
:1013C0007905F0917A052FEC208310928805E09141
:1013D0007D05F0917E0540819C010090830502C04F
:1013E000220F331F0A94E2F7242B2083E0917D051E
:1013F000F0917E0540819C010090840502C0220F7F
:10140000331F0A94E2F7242B2083E0917D05F091AD
:101410007E0540819C010090850502C0220F331F8C
:101420000A94E2F7242B2083E0917D05F0917E055C
:1014300020810090860502C0880F991F0A94E2F768
:10144000809582238083E9E7F2E02491E3E3F2E0F0
:1014500084918823C9F090E0880F991FFC01E25025
:10146000FE4F65917491FC01EC51FE4FA591B49132
:101470009FB7F894FB0180812095822380838C9113
:10148000E22FE823EC939FBFEBECF2E04491E5E818
:10149000F2E02491EFE3F2E09491992309F462C021
:1014A000442309F451C050E0FA013197E131F105CC
:1014B00008F04AC08827EE58FF4F8F4F0C942E112A
:1014C000809180008F7703C0809180008F7D809312
:1014D00080003AC084B58F7702C084B58F7D84BD0B
:1014E00033C08091B0008F7703C08091B0008F7DB2
:1014F0008093B00029C0809190008F7707C08091C1
:1015000090008F7D03C080919000877F8093900032
:101510001BC08091A0008F7707C08091A0008F7DB5
:1015200003C08091A000877F8093A0000DC08091B0
:1015300020018F7707C0809120018F7D03C08091AB
:101540002001877F80932001E92FF0E0EE0FFF1F3D
:10155000E85EFD4FA591B491EC91E22319F089EB7F
:1015600092E002C088EC92E00E94900387E695E04A
:101570000E9414028EE090E00E940D066D837E832F
:101580008F8398878FE090E00E940D062B013C012D
:101590002D813E814F8158850E94C91069837A83CD
:1015A0008B839C8369E272E087E695E00E9480036A
:1015B00069817A818B819C810E943905A301920106
:1015C00021503109410951096D817E818F819885B2
:1015D00061507109810991090E94C91069877A8750
:1015E0008B879C878FE090E00E944A054B015C014D
:1015F000C984DA84EB84FC84C114D104E104F104CD
:1016000069F0A70196010E94ED108B019C01222731
:101610003327C701B60168017901EECFDC01CB01A8
:10162000AA27BB270197A105B105E1F66EE372E099
:1016300087E695E00E948003C501B4010E94390548
:10164000E980FA800B811C8129853A854B855C8570
:10165000C501B4010E949F038B018F87988B6BE4B7
:1016600072E087E695E00E948003B8018F85988933
:101670000E94390587E695E00E9414026D817E8103
:101680008F8198850E94610D6B017C0120E030E024
:1016900040E856E40E942D0D87FD0AC020E030E0AE
:1016A00040E057E4C701B6010E94130E87FD04C055
:1016B00089E592E00E949003C301B2010E94610D8E
:1016C00020E030E040E057E40E942D0D87FD0AC085
:1016D00020E030E040E857E4C701B6010E94130E55
:1016E00087FD04C087E692E00E94900369817A81B9
:1016F0008B819C810E94610D6B017C0120E030E0B8
:1017000040E05EE40E942D0D87FD0AC020E030E03D
:1017100040E05FE4C701B6010E94130E87FD04C0DC
:1017200085E792E00E949003F2E08F169104A104F5
:10173000B10448F029853A854B855C85821693066D
:10174000A406B50620F085E892E00E94900380E0B0
:1017500090E0892B99F463E470E085E495E00E94C1
:101760002F05C501B4010E945D0369817A818B81D7
:101770009C810E945D0381E090E0EBCF89E00E94B4
:10178000F802882321F385E495E00E941F028D5919
:101790009240E9F60E9419036D877E871C010E9422
:1017A000190369877A878B879C8761E470E085E4F9
:1017B00095E00E942F058FE992E00E94900387E652
:1017C00095E00E945B02181619060CF094C087E69B
:1017D00095E00E941F029C01990F440B550B2D832D
:1017E0003E834F835887CA01B9010E94F90187E6F9
:1017F00095E00E9414028D809E80AF80B8844D8455
:101800005E843101C12CD12C760141145104610454
:10181000710419F140FE0EC0C701B601680D791DB3
:101820008A1D9B1D29813A814B815C810E94ED10AC
:101830006B017C01C501B401660F771F881F991FDA
:1018400029813A814B815C810E94ED104B015C0142
:10185000440C551C661C771CD8CFC701B6010E94EA
:101860005D038D819E81AF81B8850D97A105B1057E
:1018700009F041C06AE070E080E090E00E94F90168
:1018800087E695E00E941402CD84DE8471016AE04F
:10189000462E512C612C712C812C912C5401C11499
:1018A000D104E104F10419F1C0FE0EC0C501B40178
:1018B000640D751D861D971D29813A814B815C81C0
:1018C0000E94ED104B015C01C301B201660F771F4E
:1018D000881F991F29813A814B815C810E94ED10FC
:1018E0002B013C01CC0CDD1CEE1CFF1CD8CFC5012C
:1018F000B4010E945D0385E495E00E945B020497B9
:101900000CF45DCF0E9419032B013C016801EF84A8
:10191000F888812C912C5401C114D104E104F10404
:1019200019F1C0FE0EC0C501B401640D751D861D00
:10193000971D29853A854B855C850E94ED104B01EA
:101940005C01C301B201660F771F881F991F2985AB
:101950003A854B855C850E94ED102B013C01CC0C37
:10196000DD1CEE1CFF1CD8CFC501B4010E94F9019B
:1019700087E695E00E94140222CFF8940C9464113B
:101980005058BB27AA270E94D80C0C94D90D0E944E
:10199000CB0D38F00E94D20D20F039F49F3F19F49E
:1019A00026F40C94C80D0EF4E095E7FB0C94C20DE0
:1019B000E92F0E94EA0D58F3BA17620773078407EC
:1019C000950720F079F4A6F50C940C0E0EF4E09532
:1019D0000B2EBA2FA02D0B01B90190010C01CA01E9
:1019E000A0011124FF27591B99F0593F50F4503E94
:1019F00068F11A16F040A22F232F342F4427585F86
:101A0000F3CF469537952795A795F0405395C9F79D
:101A10007EF41F16BA0B620B730B840BBAF0915055
:101A2000A1F0FF0FBB1F661F771F881FC2F70EC0F4
:101A3000BA0F621F731F841F48F4879577956795C7
:101A4000B795F7959E3F08F0B0CF9395880F08F0B3
:101A50009927EE0F9795879508950E949E0D08F49B
:101A600081E008950E94F20D88F09F5798F0B92FF9
:101A70009927B751B0F0E1F0660F771F881F991FC3
:101A80001AF0BA95C9F714C0B13091F00E940C0E4B
:101A9000B1E008950C940C0E672F782F8827B85F5B
:101AA00039F0B93FCCF3869577956795B395D9F71B
:101AB0003EF490958095709561957F4F8F4F9F4F25
:101AC0000895E89409C097FB3EF490958095709531
:101AD00061957F4F8F4F9F4F9923A9F0F92F96E97A
:101AE000BB279395F695879577956795B795F111EF
:101AF000F8CFFAF4BB0F11F460FF1BC06F5F7F4F8C
:101B00008F4F9F4F16C0882311F096E911C077239D
:101B100021F09EE8872F762F05C0662371F096E8A6
:101B2000862F70E060E02AF09A95660F771F881F75
:101B3000DAF7880F9695879597F90895990F000819
:101B4000550FAA0BE0E8FEEF16161706E807F9078F
:101B5000C0F012161306E407F50798F0621B730B2A
:101B6000840B950B39F40A2661F0232B242B252BAB
:101B700021F408950A2609F4A140A6958FEF811D4E
:101B8000811D089597F99F6780E870E060E00895EF
:101B90009FEF80EC089500240A9416161706180685
:101BA0000906089500240A94121613061406050661
:101BB0000895092E0394000C11F4882352F0BB0FF2
:101BC00040F4BF2B11F460FF04C06F5F7F4F8F4F55
:101BD0009F4F089557FD9058440F551F59F05F3F90
:101BE00071F04795880F97FB991F61F09F3F79F03F
:101BF00087950895121613061406551FF2CF4695C1
:101C0000F1DF08C0161617061806991FF1CF869542
:101C10007105610508940895E894BB276627772726
:101C2000CB0197F908950E949E0D08F48FEF089557
:101C3000FA01EE0FFF1F309621053105A1F1611564
:101C4000710561F48038BFE39B0749F168949038CF
:101C5000810561F08038BFEF9B0741F099234AF579
:101C6000FF3FE1053105210519F1E8940894E79556
:101C7000D901AA2329F4AB2FBE2FF85FD0F310C0EF
:101C8000FF5F70F4A695E0F7F73950F019F0FF3ACE
:101C900038F49F779F930DD00F9007FC90580895CC
:101CA00046F00C94C80D60E070E080E89FE3089572
:101CB0004FE79F775F934F933F932F930E946E0F51
:101CC0002F913F914F915F910E94EA0F0C94B60EB5
:101CD00019F416F40C94C80D0C94E80E0E94F20D41
:101CE000B8F39923C9F3B6F39F57550B87FF0E94AA
:101CF000F60E0024A0E640EA90018058569597958C
:101D000028F4805C660F771F881F20F0261737079E
:101D1000480730F4621B730B840B202931294A2BAE
:101D2000A69517940794202531254A2758F7660F62
:101D3000771F881F20F026173707480730F4620BFB
:101D4000730B840B200D311D411DA09581F7B90146
:101D5000842F9158880F96958795089529F416F049
:101D60000C94C20D0C940C0E0C94C80D0E94F20D34
:101D7000A8F39638A0F707F80F92E8942BE33AEA15
:101D800048EB5FE70E9400100F920F920F924DB741
:101D90005EB70F920E94B60FE6E0F1E00E94FD0EE2
:101DA0004F915F91EF91FF91E595EE1FFF1F49F075
:101DB000FE57E0684427EE0F441FFA95E1F741957E
:101DC000550B0E94300F0F9007FE0C94240F0895BE
:101DD0009F3F31F0915020F4879577956795B7959F
:101DE000880F911D9695879597F9089591505040C9
:101DF000660F771F881FD2F70895DF93CF931F9345
:101E00000F93FF92EF92DF927B018C01689406C0E2
:101E1000DA2EEF010E94FD0FFE01E894A5912591B5
:101E2000359145915591A6F3EF010E94D80CFE0122
:101E30009701A801DA9469F7DF90EF90FF900F9176
:101E40001F91CF91DF9108959B01AC0160E070E09C
:101E500080E89FE30C9457100C94C20D0C94E80E8C
:101E60000E94F20DD8F39923C9F3940F511DA3F3E7
:101E70009150504094F059F0882332F0660F771F4C
:101E8000881F91505040C1F79E3F51052CF7880F95
:101E9000911D9695879597F908955F3FACF0983E10
:101EA0009CF0BB27869577956795B79508F4B16048
:101EB0009395C1F7BB0F58F711F460FFE8CF6F5F40
:101EC0007F4F8F4F9F4FE3CF0C940D0E16F00C9465
:101ED000E80E0C94C80D68940C94C20D0E94F20D8B
:101EE000A8F39923C1F3AEF3DF93CF931F930F931E
:101EF000FF92C92FDD2788232AF02197660F771FCD
:101F0000881FDAF720E030E040E85FEB9FE3883994
:101F100020F0803E38F021968F770E94C10CEEE2CF
:101F2000F1E004C00E94C10CEBE5F1E00E94FD0E5F
:101F30008B01BE01EC01FB2E6F5771097595771F60
:101F4000880B990B0E94630D28E132E741E35FE3C0
:101F50000E94FD0FAF2D9801AE01FF900F911F91D0
:101F6000CF91DF910E94D80C0C94D90DFA01DC01BD
:101F7000AA0FBB1F9B01AC01BF5728F422273327B0
:101F80004427507820C0B75190F4AB2F00244695D9
:101F900037952795011CA395D2F3002071F0220FED
:101FA000331F441FB395DAF30ED00C94C00C61308C
:101FB0007105A0E88A07B94630F49B01AC01662799
:101FC000772788279078309621F0208331834283C9
:101FD000538308950E94FD0F0C94D90D0E94CB0DE0
:101FE00038F00E94D20D20F0952311F00C94C20D10
:101FF0000C94C80D11240C940D0E0E94EA0D70F380
:10200000959FC1F3950F50E0551F629FF001729F9D
:10201000BB27F00DB11D639FAA27F00DB11DAA1FAC
:10202000649F6627B00DA11D661F829F2227B00DF9
:10203000A11D621F739FB00DA11D621F839FA00D84
:10204000611D221F749F3327A00D611D231F849FD4
:10205000600D211D822F762F6A2F11249F5750402B
:102060009AF0F1F088234AF0EE0FFF1FBB1F661FA6
:10207000771F881F91505040A9F79E3F510580F06F
:102080000C94C20D0C940D0E5F3FE4F3983ED4F314
:10209000869577956795B795F795E7959F5FC1F713
:1020A000FE2B880F911D9695879597F908950E94AC
:1020B0006B100C94D90D0E94D20D58F00E94CB0DDC
:1020C00040F029F45F3F29F00C94C20D51110C949B
:1020D0000D0E0C94C80D0E94EA0D68F39923B1F31C
:1020E000552391F3951B550BBB27AA27621773073E
:1020F000840738F09F5F5F4F220F331F441FAA1FD2
:10210000A9F335D00E2E3AF0E0E832D0915050408D
:10211000E695001CCAF72BD0FE2F29D0660F771F3B
:10212000881FBB1F261737074807AB07B0E809F021
:10213000BB0B802DBF01FF2793585F4F3AF09E3FA6
:10214000510578F00C94C20D0C940D0E5F3FE4F332
:10215000983ED4F3869577956795B795F7959F5FE9
:10216000C9F7880F911D9695879597F90895E1E035
:10217000660F771F881FBB1F621773078407BA0794
:1021800020F0621B730B840BBA0BEE1F88F7E095EF
:102190000895DB018F939F930E943611BF91AF91F9
:1021A000A29F800D911DA39F900DB29F900D1124B1
:1021B000089597FB072E16F4009407D077FD09D0F9
:1021C0000E94411107FC05D03EF4909581959F4FE8
:1021D0000895709561957F4F0895A1E21A2EAA1B6C
:1021E000BB1BFD010DC0AA1FBB1FEE1FFF1FA217C7
:1021F000B307E407F50720F0A21BB30BE40BF50BC4
:10220000661F771F881F991F1A9469F7609570954C
:10221000809590959B01AC01BD01CF010895052EDD
:1022200097FB1EF400940E94261157FD07D00E94D0
:10223000ED1007FC03D04EF40C94261150954095F8
:10224000309521953F4F4F4F5F4F08959095809562
:10225000709561957F4F8F4F9F4F0895EE0FFF1F31
:10226000881F8BBF0790F691E02D19940E9455119D
:10227000A59F900DB49F900DA49F800D911D1124DA
:102280000895AA1BBB1B51E107C0AA1FBB1FA617BD
:10229000B70710F0A61BB70B881F991F5A95A9F70F
:1022A00080959095BC01CD010895A29FB001B39F88
:1022B000C001A39F700D811D1124911DB29F700D4F
:0C22C000811D1124911D0895F894FFCF9A
:1022CC0000000000B70185025B021F023F021402EE
:1022DC00507269766174655F6B657920646F6D61AE
:1022EC00696E206572726F72005468697320617236
:1022FC006475696E6F2773206D6F643A200050759A
:10230C00626C6963206B65793A2000507269766162
:10231C007465206B65793A2000705F76616C756529
:10232C00206572726F7200715F76616C75652065E5
:10233C0072726F72006D6F645F76616C756520658B
:10234C0072726F72007075626C69635F6B65792075
:10235C006E6F7420646F6D61696E004300410062A2
:10236C0065666F726520696E66696E746520776844
:10237C00696C65206C6F6F700053657276657220A6
:10238C0041726475696E6F00436C69656E742041AF
:08239C00726475696E6F0000A8
:00000001FF
