:100000000C9483010C94B4010C94B4010C94B401CD
:100010000C94B4010C94B4010C94B4010C94B4018C
:100020000C94B4010C94B4010C94B4010C94B4017C
:100030000C94B4010C94B4010C94B4010C94B4016C
:100040000C94B4010C94B4010C94B4010C94B4015C
:100050000C94B4010C94B4010C94B4010C94C50933
:100060000C94B4010C9492090C94BA080C94B40149
:100070000C94B4010C94B4010C94B4010C94B4012C
:100080000C94B4010C94B4010C94B4010C94B4011C
:100090000C945F090C947B080C94B4010C94B4018B
:1000A0000C94B4010C94B4010C94B4010C94B401FC
:1000B0000C94B4010C94B4010C94B4010C94B401EC
:1000C0000C94B4010C94B4010C94B4010C942C095C
:1000D0000C943C080C94B4010C94F9080C94FD07A2
:1000E0000C94B4018F0B920B850B890BC90B960BEB
:1000F0009A0BA00BA40BA80BAE0BB20BB60BC90B43
:10010000BC0BC00BC40B07634236B79BD8A71A3988
:10011000685618AEBAAB558C1D3CB7CC5763BD6D55
:10012000EDFD753EF6177231BF000000803F0800FC
:100130000000BE922449123EABAAAA2ABECDCCCC66
:100140004C3E00000080BEABAAAAAA3E0000000000
:10015000BF000000803F0000000000084178D3BBD2
:100160004387D1133D190E3CC3BD4282AD2B3E687F
:10017000EC8276BED98FE1A93E4C80EFFFBE01C470
:10018000FF7F3F00000000000C9425020C94B20B8E
:100190000C94920B0C94AE0B0C94C90B0C94C40BE6
:1001A0000C94A00B0C940F0A0C94BC0B0C948F0BAA
:1001B0000C94A40B0C947E020C94A80B0C949A0B38
:1001C0000C94890B0C94C00B0C94960B0C94A90204
:1001D0000C94EF020C94C5020C94850B0C948902CC
:1001E0000C94B60B000020002300260029002C00F0
:1001F0002F00320000010000030106010901000088
:10020000090A02080B0C0D07060304010000000098
:1002100000000000000000000000000000000000DE
:100220000000000000000000000011100F0000009E
:1002300000000000000000000000000000000000BE
:100240000000000000002200250028002B002E00E6
:100250003100340002010000050108010B0100001B
:100260002100240027002A002D0030003300010166
:100270000000040107010A01050505050705080836
:100280000808020202020A0A080804040404010120
:100290000101010101010303030303030303040735
:1002A00007070C0C0C0C0C0C0C0C020202020606CC
:1002B0000606060606060B0B0B0B0B0B0B0B0102BF
:1002C0001020200808102040102040800201020168
:1002D0000804020101020408102040808040201020
:1002E0000804020180040201804020100804020179
:1002F00008040201010204081020408001020408E1
:10030000102040800F0A11241FBECFEFD1E2DEBFC4
:10031000CDBF00E00CBF13E0A0E0B2E0E0ECF4E2FF
:1003200000E00BBF02C007900D92A232B107D9F7CF
:1003300025E0A2E2B3E001C01D92A33DB207E1F7C0
:1003400011E0C3E8D1E000E006C021970109802F49
:10035000FE010E942812C238D10780E00807A9F7E1
:100360000E94E10A0C94B70D0C940000CF93DF9328
:1003700090E0FC01E254FD4F2491FC01E858FD4F50
:1003800084918823C1F090E0880F991FFC01E25A04
:10039000FD4FC591D491FC01EC5BFD4FA591B4914B
:1003A0009FB7F8948881E22FE0958E2388838C9103
:1003B000E823EC939FBFDF91CF910895FC01A489BE
:1003C000B58981E090E09C0100A002C0220F331F9C
:1003D0000A94E2F72C93A089B1891C92A289B3896F
:1003E0002FEC2C9311A2A689B7894C919C01048C07
:1003F00002C0220F331F0A94E2F7242B2C93A68904
:10040000B7894C919C01058C02C0220F331F0A94BE
:10041000E2F7242B2C93A689B7894C919C01068C7A
:1004200002C0220F331F0A94E2F7242B2C93A689D3
:10043000B7892C91078C02C0880F991F0A94E2F7A4
:10044000809582238C93089508950F931F93CF93E3
:10045000DF93FC01A685B7858D01005C1F4FE80185
:100460008881998101968F739927AD014E5B5F4F0B
:10047000EA012881398128173907D1F3E801288159
:100480003981A20FB31F6C93A685B785A05CBF4FBF
:1004900011969C938E93A689B7892C9181E090E068
:1004A000078C02C0880F991F0A94E2F7822B8C9365
:1004B00081E081A30488F589E02D808180648083B8
:1004C00081E090E0DF91CF911F910F910895682F07
:1004D00081EB95E00C942502CF93DF936DE08FE8DC
:1004E00095E00E942502EC016AE08FE895E00E9409
:1004F00025028C0F9D1FDF91CF910895FC0181A1F2
:10050000882329F0A489B5898C9186FFFBCF11A29D
:100510000895FC01A485B585FD01E05CFF4F2081B5
:1005200031813296808191812817390779F0808155
:100530009181A80FB91F8C91208131812F5F3F4F8E
:100540002F7333273183208390E008958FEF9FEF3F
:100550000895DC011C96ED91FC911D97DF01A05CD4
:10056000BF4F2D913C91119712968D919C911197AF
:100570002817390739F08D919C91E80FF91F808178
:1005800090E008958FEF9FEF0895FC012485358555
:10059000F901E05CFF4F80819181329620813181A9
:1005A000821B930B8F7399270895FB01E05CFF4F2B
:1005B00020813181DB01AE5BBF4F4D915C912F5F9C
:1005C0003F4F2F7333274217530741F0408151812A
:1005D000DB01A40FB51F8C93318320830895CF9244
:1005E000DF92EF92FF920F931F93CF93DF936C01F3
:1005F000EB017B01E40EF51E00E010E0CE15DF05F7
:1006000061F06991D601ED91FC910190F081E02DAE
:10061000C6011995080F191FF1CFC801DF91CF91BD
:100620001F910F91FF90EF90DF90CF9008953FB70B
:10063000F8948091230390912403A0912503B09115
:10064000260326B5A89B05C02F3F19F00196A11DD2
:10065000B11D3FBFBA2FA92F982F8827820F911D58
:10066000A11DB11DBC01CD0142E0660F771F881F9F
:10067000991F4A95D1F70895CF92DF92EF92FF929A
:10068000CF93DF936B017C010E941703EB01C11430
:10069000D104E104F10479F00E9417036C1B7D0B77
:1006A000683E7340A0F381E0C81AD108E108F10860
:1006B000C851DC4FECCFDF91CF91FF90EF90DF90EE
:1006C000CF900895CF92DF92EF92FF92CF93DF9376
:1006D0009FB7F894C0908B05D0908C05E0908D0565
:1006E000F0908E059FBF98EEC90E93E0D91EE11CD5
:1006F000F11CC82FD0E081EB95E00E94C5028C1759
:100700009D07BCF42FB7F89480918B0590918C05D0
:10071000A0918D05B0918E052FBF8C159D05AE055E
:10072000BF0538F461E070E080E090E00E943C0397
:10073000E2CF81EB95E00E94C50221E08C179D0776
:100740000CF420E0822FDF91CF91FF90EF90DF90AB
:10075000CF900895CF92DF92EF92FF9281EB95E0D8
:100760000E9489027C0181EB95E00E9489026C0164
:1007700081EB95E00E948902A601DD0C660B770BE8
:10078000762F652F542F4427092E000CAA0BBB0B84
:10079000DC0199278827842B952BA62BB72B670183
:1007A000FF0CEE08FF08C82AD92AEA2AFB2A81EBA7
:1007B00095E00E948902092E000CAA0BBB0BB82FF2
:1007C000AA2799278827BC01CD016C297D298E296C
:1007D0009F29FF90EF90DF90CF9008950F931F9384
:1007E000CF93DF938B01D82FC92F81EB95E00E9427
:1007F0007E02802F000F990B0E946702812F110F3C
:10080000990B0E9467028D2FDD0F990B0E946702E2
:100810008C2FCC0F990BDF91CF911F910F910C94DE
:1008200067024F925F926F927F928F929F92AF92E8
:10083000BF92CF92DF92EF92FF920F931F93CF93CD
:10084000DF93CDB7DEB764970FB6F894DEBF0FBE67
:10085000CDBF69837A838B839C832D833E834F83B3
:10086000588727013801A98ABA8ACB8ADC8A8FE89F
:1008700095E00E94C502181619060CF096C08FE884
:1008800095E00E9489029C01990F440B550B298722
:100890003A874B875C8769858FE895E00E9425023F
:1008A0008FE895E00E947E0289849A84AB84BC84A0
:1008B000670178011D861E861F86188AC114D1041F
:1008C000E104F10439F1C0FE12C06D857E858F858B
:1008D0009889680D791D8A1D9B1D2D813E814F8150
:1008E00058850E94E7116D877E878F87988BC50199
:1008F000B401660F771F881F991F2D813E814F819C
:1009000058850E94E7114B015C01CC0CDD1CEE1CEC
:10091000FF1CD4CF6D857E858F8598890E94EE035C
:1009200089859A85AB85BC850D97A105B105E9F54B
:100930006AE08FE895E00E9425028FE895E00E942A
:100940007E026AE0862E912CA12CB12CC12CD12CD8
:100950007601411451046104710419F140FE0EC086
:10096000C701B601680D791D8A1D9B1D2D813E8131
:100970004F8158850E94E7116B017C01C501B401CC
:10098000660F771F881F991F2D813E814F815885E3
:100990000E94E7114B015C01440C551C661C771C3E
:1009A000D8CFC701B6010E94EE0381EB95E00E940B
:1009B000C50204970CF45AC00E94AA034B015C01C3
:1009C000C12CD12C760129813A814B815C81211582
:1009D00031054105510559F120FF0EC0C701B6018F
:1009E000680D791D8A1D9B1D29893A894B895C896F
:1009F0000E94E7116B017C01C501B401660F771FEE
:100A0000881F991F29893A894B895C890E94E711BF
:100A10004B015C0189819A81AB81BC81880F991F50
:100A2000AA1FBB1F89839A83AB83BC83CCCF6C2D59
:100A30008FE895E00E9425028FE895E064960FB656
:100A4000F894DEBF0FBECDBFDF91CF911F910F9104
:100A5000FF90EF90DF90CF90BF90AF909F908F90DE
:100A60007F906F905F904F900C947E0264960FB6CB
:100A7000F894DEBF0FBECDBFDF91CF911F910F91D4
:100A8000FF90EF90DF90CF90BF90AF909F908F90AE
:100A90007F906F905F904F900895009769F0FC01F0
:100AA00001900020E9F73197AF01481B590BBC01B9
:100AB0008FE895E00C94EF0280E090E00895CF93EA
:100AC000DF930E944D05EC010E946C028C0F9D1F6C
:100AD000DF91CF9108952F923F924F925F926F9244
:100AE0007F928F929F92AF92BF92CF92DF92EF92BE
:100AF000FF920F931F93CF93DF93CDB7DEB7C85408
:100B0000D1400FB6F894DEBF0FBECDBF69017A01A8
:100B100069837A838B839C8381E090E0A0E0B0E0DE
:100B2000CF55DF4F88839983AA83BB83C15AD040B6
:100B30002D833E834F835887CB55DF4F1882198210
:100B40001A821B82C55AD0408E010F5F1F4F9E0133
:100B50002F553F4F1901CF5BDE4F88839983AA83BE
:100B6000BB83C154D140D80114964D905D906D90D7
:100B70007C90179714141504160417040CF060C029
:100B80008D909D90AD90BC90C501B401A3019201E0
:100B90000E940912CB5BDE4F288339834A835B8333
:100BA000C554D140CF5BDE4F288139814A815B81BA
:100BB000C154D1402F5F3F4F4F4F5F4FCF5BDE4F50
:100BC000288339834A835B83C154D140A3019201B6
:100BD000CB5BDE4F688179818A819B81C554D1408E
:100BE0000E94C311861A970AA80AB90AD801189652
:100BF0008D929D92AD92BC921B97F101648175819B
:100C000086819781CB5BDE4F288139814A815B8168
:100C1000C554D1400E94C31180809180A280B380CE
:100C2000A5019401261B370B480B590B20873187F0
:100C3000428753870C5F1F4FF4E02F0E311C93CF78
:100C4000CF5BDE4F88819981AA81BB81C154D1409D
:100C50000197A109B109880F991F880F991FE1EA2F
:100C6000F0E0EC0FFD1FE80FF91F80809180A2805B
:100C7000B380B7FE18C066277727CB0168197909BA
:100C80008A099B09A70196010E94E7112F5F3F4F38
:100C90004F4F5F4FC701B6010E94C311680D791D08
:100CA0008A1D9B1D02C0C501B401A70196010E94C7
:100CB000E7114B015C016C157D058E059F0520F049
:100CC00080E192E00E945F05B401C501C85BDE4F80
:100CD0000FB6F894DEBF0FBECDBFDF91CF911F914D
:100CE0000F91FF90EF90DF90CF90BF90AF909F90CB
:100CF0008F907F906F905F904F903F902F900895CE
:100D00008F929F92AF92BF92EF92FF920F931F9399
:100D1000CF93DF93CDB7DEB7A1970FB6F894DEBFC0
:100D20000FBECDBF162F042F19A2423008F40AE0DF
:100D30007E0121E2E20EF11C802E912CA12CB12C1F
:100D4000612FA50194010E94E711029F101911243F
:100D500081E0E81AF1081A3014F4105D01C0195C42
:100D6000F7011083122F732FCA01232B242B252B5D
:100D700039F7C7010E944D05A1960FB6F894DEBF62
:100D80000FBECDBFDF91CF911F910F91FF90EF90DC
:100D9000BF90AF909F908F900895CF93DF934AE0DC
:100DA0000E948006EC010E946C028C0F9D1FDF9157
:100DB000CF9108952F923F924F925F926F927F92C0
:100DC0008F929F92AF92BF92CF92DF92EF92FF925B
:100DD0000F931F93CF93DF93CDB7DEB72A970FB64C
:100DE000F894DEBF0FBECDBF9A87898732E0232EED
:100DF000312C9C01032E000C440B550B29833A83A4
:100E00004B835C8301969C01990F440B550B2D83FA
:100E10003E834F83588700E010E0C12CD12C76012F
:100E200049855A850417150774F580917B00877FE3
:100E300080937B0051E450937C0080917A00806421
:100E400080937A0080917A0086FDFCCF80917800B3
:100E50002091790090E0922BB1010E94D311CC0C2B
:100E6000DD1CEE1CFF1C892B29F08FEFC81AD80A55
:100E7000E80AF80A65E070E080E090E00E943C0338
:100E80000F5F1F4FCDCF69817A818B819C810E943A
:100E90005D0E9B01AC0160E070E080E090E40E9498
:100EA000120F4B015C01C701B6010E945B0EA50148
:100EB00094010E94BB0D0E942C0E6B017C010E94CC
:100EC0005B0E2B013C019B01AC01C501B4010E94EA
:100ED000270E18160CF49FCF6D817E818F81988527
:100EE0000E945D0E9B01AC0160E070E080E090E448
:100EF0000E94120F9B01AC01C301B2010E94270E98
:100F000087FF89CFC701B6012A960FB6F894DEBFD6
:100F10000FBECDBFDF91CF911F910F91FF90EF904A
:100F2000DF90CF90BF90AF909F908F907F906F9009
:100F30005F904F903F902F9008954F925F926F92E5
:100F40007F928F929F92AF92BF92CF92DF92EF9259
:100F5000FF921F93CF93DF93EC01CE010E94DA063C
:100F60006B017C010E945B0E0E94680F2B013C010B
:100F700082E0882E912CA12CB12C11E0C501B40186
:100F80000E945B0EA30192010E94270E18168CF09E
:100F9000C701B601A50194010E94E711672B682BD8
:100FA000692B09F410E08FEF881A980AA80AB80A8A
:100FB000E5CF112339F011E081E0C816D104E10436
:100FC000F10409F410E062E070E080E090E00E943B
:100FD0003C03112311F2C701B601DF91CF911F919C
:100FE000FF90EF90DF90CF90BF90AF909F908F9049
:100FF0007F906F905F904F9008951F920F920FB661
:101000000F9211240BB60F922F933F938F939F93C0
:10101000EF93FF93209167033091680380916903F8
:1010200090916A032817390731F4809131018F7D3F
:101030008093310114C0E0916903F0916A03E95D86
:10104000FC4F20818091690390916A0301968F7310
:10105000992790936A038093690320933601FF9147
:10106000EF919F918F913F912F910F900BBE0F9019
:101070000FBE0F901F9018951F920F920FB60F92F0
:1010800011240BB60F922F933F938F939F93EF935F
:10109000FF932091EF033091F0038091F103909141
:1010A000F2032817390731F48091D1008F7D8093A6
:1010B000D10014C0E091F103F091F203E155FC4F2F
:1010C00020818091F1039091F20301968F7399270B
:1010D0009093F2038093F1032093D600FF91EF9158
:1010E0009F918F913F912F910F900BBE0F900FBE4C
:1010F0000F901F9018951F920F920FB60F92112408
:101100000BB60F922F933F938F939F93EF93FF9381
:101110002091990430919A0480919B0490919C04B1
:101120002817390731F48091C9008F7D8093C90059
:1011300014C0E0919B04F0919C04E75AFB4F20817E
:1011400080919B0490919C0401968F7399279093B2
:101150009C0480939B042093CE00FF91EF919F917C
:101160008F913F912F910F900BBE0F900FBE0F905C
:101170001F9018951F920F920FB60F9211240BB665
:101180000F922F933F938F939F93EF93FF93209111
:1011900043053091440580914505909146052817F7
:1011A000390731F48091C1008F7D8093C10014C054
:1011B000E0914505F0914605ED5FFA4F2081809161
:1011C00045059091460501968F73992790934605A2
:1011D000809345052093C600FF91EF919F918F91D9
:1011E0003F912F910F900BBE0F900FBE0F901F904D
:1011F00018951F920F920FB60F9211240BB60F92F3
:101200002F933F934F935F936F937F938F939F930E
:10121000AF93BF93EF93FF938091300182FD07C09E
:10122000809136016BE673E00E94D50202C0809186
:101230003601FF91EF91BF91AF919F918F917F9177
:101240006F915F914F913F912F910F900BBE0F9037
:101250000FBE0F901F9018951F920F920FB60F920E
:1012600011240BB60F922F933F934F935F936F937D
:101270007F938F939F93AF93BF93EF93FF9380914F
:10128000D00082FD07C08091D60063EF73E00E941A
:10129000D50202C08091D600FF91EF91BF91AF912E
:1012A0009F918F917F916F915F914F913F912F917E
:1012B0000F900BBE0F900FBE0F901F9018951F92AE
:1012C0000F920FB60F9211240BB60F922F933F93EC
:1012D0004F935F936F937F938F939F93AF93BF933E
:1012E000EF93FF938091C80082FD07C08091CE00EC
:1012F0006DE974E00E94D50202C08091CE00FF919A
:10130000EF91BF91AF919F918F917F916F915F917D
:101310004F913F912F910F900BBE0F900FBE0F90EA
:101320001F9018951F920F920FB60F9211240BB6B3
:101330000F922F933F934F935F936F937F938F936E
:101340009F93AF93BF93EF93FF938091C00082FD73
:1013500007C08091C60067E475E00E94D50202C014
:101360008091C600FF91EF91BF91AF919F918F91B6
:101370007F916F915F914F913F912F910F900BBE95
:101380000F900FBE0F901F9018951F920F920FB6DF
:101390000F9211242F933F938F939F93AF93BF93FB
:1013A00080918B0590918C05A0918D05B0918E0553
:1013B0003091220323E0230F2D3720F40196A11D45
:1013C000B11D05C026E8230F0296A11DB11D209373
:1013D000220380938B0590938C05A0938D05B09389
:1013E0008E058091230390912403A0912503B09151
:1013F00026030196A11DB11D80932303909324031E
:10140000A0932503B0932603BF91AF919F918F9135
:101410003F912F910F900FBE0F901F901895CF9274
:10142000DF92EF92FF92EFE8F5E01382128288EEEE
:10143000C82E83E0D82EE12CF12CC482D582E6821E
:10144000F78264E072E07183608387E495E09587BA
:10145000848783E095E09787868785EC90E0918B81
:10146000808B84EC90E0938B828B80EC90E0958B6A
:10147000848B81EC90E0978B868B82EC90E0918F4F
:10148000808F86EC90E0938F828F44E0448F33E02E
:10149000358F27E0268F95E0978F81E080A3E1EEDE
:1014A000F4E013821282C482D582E682F7827183CD
:1014B0006083ADE9B4E0B587A487A9E5B4E0B78758
:1014C000A687ADECB0E0B18BA08BACECB0E0B38BF9
:1014D000A28BA8ECB0E0B58BA48BA9ECB0E0B78BE5
:1014E000A68BAAECB0E0B18FA08FAEECB0E0B38FCA
:1014F000A28F448F358F268F978F80A3E7E3F4E088
:1015000013821282C482D582E682F782718360835D
:10151000A3EFB3E0B587A487AFEAB3E0B787A687A8
:10152000A5EDB0E0B18BA08BA4EDB0E0B38BA28BA6
:10153000A0EDB0E0B58BA48BA1EDB0E0B78BA68B8E
:10154000A2EDB0E0B18FA08FA6EDB0E0B38FA28F77
:10155000448F358F268F978F80A3E1EBF5E01382C0
:101560001282C482D582E682F782718360836BE641
:1015700073E07587648767E273E07787668765E362
:1015800071E0718B608B64E371E0738B628B60E35D
:1015900071E0758B648B61E371E0778B668B62E33E
:1015A00071E0718F608F66E371E0738F628F448F9B
:1015B000358F268F978F80A3FF90EF90DF90CF908D
:1015C0000895CF93DF93CDB7DEB761970FB6F89448
:1015D000DEBF0FBECDBF789484B5826084BD84B574
:1015E000816084BD85B5826085BD85B5816085BD1E
:1015F00080916E00816080936E00109281008091D6
:10160000810082608093810080918100816080935D
:101610008100809180008160809380008091B10082
:1016200084608093B1008091B00081608093B000AD
:1016300080919100826080939100809191008160FF
:1016400080939100809190008160809390008091C0
:10165000A10082608093A1008091A10081608093AD
:10166000A1008091A00081608093A0008091210161
:10167000826080932101809121018160809321010A
:101680008091200181608093200180917A008460A4
:1016900080937A0080917A00826080937A008091B2
:1016A0007A00816080937A0080917A0080688093CC
:1016B0007A001092C1008FE895E00E94DE0181EB74
:1016C00095E00E94DE0181E00E94B6018DE00E945B
:1016D000B601EBE0F2E04491EBECF2E02491E5E8B6
:1016E000F2E09491992309F460C0442309F451C0B5
:1016F00050E0FA013197E131F10508F04AC088273E
:10170000EE58FF4F8F4F0C942812809180008F77F6
:1017100003C0809180008F7D809380003AC084B5A3
:101720008F7702C084B58F7D84BD33C08091B000B7
:101730008F7703C08091B0008F7D8093B00029C067
:10174000809190008F7707C0809190008F7D03C0BB
:1017500080919000877F809390001BC08091A000B3
:101760008F7707C08091A0008F7D03C08091A0007B
:10177000877F8093A0000DC0809120018F7707C0E4
:10178000809120018F7D03C080912001877F80930D
:101790002001E92FF0E0EE0FFF1FEC51FE4FA59165
:1017A000B491EC91E22309F008C182E193E00E9438
:1017B0005F05198A8EE090E00E949D072B013C0195
:1017C0008FE090E00E949D0769837A838B839C83DE
:1017D000A30192010E94C3116D837E838F8398873A
:1017E00089E292E00E944D056D817E818F8198850E
:1017F0000E94CD0629813A814B815C8121503109BB
:1018000041095109C301B20161507109810991096E
:101810000E94C3116D877E878F87988B8FE090E041
:101820000E94DA064B015C01CD84DE84EF84F888E7
:10183000C114D104E104F10469F0A70196010E94EA
:10184000E7118B019C0122273327C701B6016801EC
:101850007901EECFDC01CB01AA27BB270197A105B7
:10186000B105E1F68EE392E00E944D05C501B40199
:101870000E94CD06ED80FE800F8118852D853E8566
:101880004F855889C501B4010E946B0569877A8725
:101890008B879C878BE492E00E944D0569857A8551
:1018A0008B859C850E94CD068FE895E00E947E0284
:1018B000C301B2010E945B0E2B013C0120E030E02D
:1018C00040E856E40E94270E87FD0AC020E030E081
:1018D00040E057E4C301B2010E940D0F87FD04C030
:1018E00089E592E00E945F0569817A818B819C8104
:1018F0000E945B0E20E030E040E057E40E94270E9B
:1019000087FD0AC020E030E040E857E4C301B2019F
:101910000E940D0F87FD04C087E692E00E945F05DC
:101920006D817E818F8198850E945B0E2B013C0129
:1019300020E030E040E05EE40E94270E87FD0AC010
:1019400020E030E040E05FE4C301B2010E940D0FEF
:1019500087FD04C085E792E00E945F0522E08216C1
:101960009104A104B10448F08D859E85AF85B889A6
:1019700088169906AA06BB0620F085E892E00E9428
:101980005F052989822F90E0A0E0B0E04AE0BC0129
:10199000CD010E9480060E946C028989882309F487
:1019A000CCC08BE992E00E945F0519821A821B82EB
:1019B0001C82412C512C320121C08AE193E00E940B
:1019C0005F05A1E0A98BF6CE0530110509F45BC0D7
:1019D0000230110509F488C00330110591F004307C
:1019E0001105E9F00130110579F782ED92E00E94CE
:1019F0005F0581E00E946203811133C003E010E0C3
:101A0000EBCF81EB95E00E9489028334910521F7A9
:101A10008BEA92E00E945F0504E010E0DDCF8BEBE3
:101A200092E00E945F0588E00E946203882331F300
:101A30000E94AA0369837A838B839C830E94AA03F2
:101A40002B013C0181E490E00E946702C501B401D2
:101A50000E94EE036D817E818F8198850E94EE0346
:101A600022C081EB95E00E94890281349105E1F169
:101A700081EB95E00E9489028334910509F0ACCF97
:101A800005E010E0A9CF88E00E946203882309F4F2
:101A9000B5CF0E94AA0369837A838B839C830E94BB
:101AA000AA032B013C0101E010E096CF82ED92E009
:101AB0000E945F0589E00E9462038823F1F181EBB7
:101AC00095E00E94890281349105B9F50E94AA032C
:101AD00069837A838B839C830E94AA032B013C0138
:101AE00081E490E00E94670288EF92E00E945F0527
:101AF0009989992389F063015201E980FA800B8169
:101B00001C812D813E814F81588569857A858B8521
:101B10009C850E941104ECCF63015201E980FA8098
:101B20000B811C812D813E814F81588569857A8585
:101B30008B859C850E941104EFCF80E090E0892B7B
:101B400009F0B4CF89EE92E00E945F0583E490E053
:101B50000E946702C501B4010E94EE036D817E817F
:101B60008F8198850E94EE0381E090E0E8CFF894A1
:101B70000C945E125058BB27AA270E94D20D0C94D9
:101B8000D30E0E94C50E38F00E94CC0E20F039F41E
:101B90009F3F19F426F40C94C20E0EF4E095E7FB77
:101BA0000C94BC0EE92F0E94E40E58F3BA1762079A
:101BB00073078407950720F079F4A6F50C94060FB7
:101BC0000EF4E0950B2EBA2FA02D0B01B901900158
:101BD0000C01CA01A0011124FF27591B99F0593F9C
:101BE00050F4503E68F11A16F040A22F232F342FE4
:101BF0004427585FF3CF469537952795A795F04032
:101C00005395C9F77EF41F16BA0B620B730B840B46
:101C1000BAF09150A1F0FF0FBB1F661F771F881FFE
:101C2000C2F70EC0BA0F621F731F841F48F4879556
:101C300077956795B795F7959E3F08F0B0CF939548
:101C4000880F08F09927EE0F9795879508950E94C1
:101C5000980E08F481E008950E94EC0E88F09F57DA
:101C600098F0B92F9927B751B0F0E1F0660F771FC0
:101C7000881F991F1AF0BA95C9F714C0B13091F0B6
:101C80000E94060FB1E008950C94060F672F782F7D
:101C90008827B85F39F0B93FCCF38695779567957B
:101CA000B395D9F73EF490958095709561957F4FE7
:101CB0008F4F9F4F0895E89409C097FB3EF490958D
:101CC0008095709561957F4F8F4F9F4F9923A9F015
:101CD000F92F96E9BB279395F695879577956795A4
:101CE000B795F111F8CFFAF4BB0F11F460FF1BC0E8
:101CF0006F5F7F4F8F4F9F4F16C0882311F096E97B
:101D000011C0772321F09EE8872F762F05C0662328
:101D100071F096E8862F70E060E02AF09A95660FE1
:101D2000771F881FDAF7880F9695879597F908959A
:101D3000990F0008550FAA0BE0E8FEEF16161706DC
:101D4000E807F907C0F012161306E407F50798F044
:101D5000621B730B840B950B39F40A2661F0232B5D
:101D6000242B252B21F408950A2609F4A140A695D9
:101D70008FEF811D811D089597F99F6780E870E0BE
:101D800060E008959FEF80EC089500240A941616F1
:101D9000170618060906089500240A941216130659
:101DA000140605060895092E0394000C11F48823E7
:101DB00052F0BB0F40F4BF2B11F460FF04C06F5F03
:101DC0007F4F8F4F9F4F089557FD9058440F551FD9
:101DD00059F05F3F71F04795880F97FB991F61F0AD
:101DE0009F3F79F087950895121613061406551F24
:101DF000F2CF4695F1DF08C0161617061806991F90
:101E0000F1CF86957105610508940895E894BB2784
:101E100066277727CB0197F908950E94980E08F45A
:101E20008FEF0895FA01EE0FFF1F3096210531055F
:101E3000A1F16115710561F48038BFE39B0749F199
:101E400068949038810561F08038BFEF9B0741F0BE
:101E500099234AF5FF3FE1053105210519F1E89481
:101E60000894E795D901AA2329F4AB2FBE2FF85F78
:101E7000D0F310C0FF5F70F4A695E0F7F73950F08B
:101E800019F0FF3A38F49F779F930DD00F9007FC1D
:101E90009058089546F00C94C20E60E070E080E81F
:101EA0009FE308954FE79F775F934F933F932F935F
:101EB0000E9468102F913F914F915F910E94E41012
:101EC0000C94B00F19F416F40C94C20E0C94E20F9B
:101ED0000E94EC0EB8F39923C9F3B6F39F57550B44
:101EE00087FF0E94F00F0024A0E640EA900180588E
:101EF0005695979528F4805C660F771F881F20F011
:101F000026173707480730F4621B730B840B202910
:101F100031294A2BA69517940794202531254A2765
:101F200058F7660F771F881F20F0261737074807D6
:101F300030F4620B730B840B200D311D411DA095F5
:101F400081F7B901842F9158880F96958795089548
:101F500029F416F00C94BC0E0C94060F0C94C20ECF
:101F60000E94EC0EA8F39638A0F707F80F92E894B9
:101F70002BE33AEA48EB5FE70E94FA100F920F92C8
:101F80000F924DB75EB70F920E94B010E6E0F1E0FD
:101F90000E94F70F4F915F91EF91FF91E595EE1F32
:101FA000FF1F49F0FE57E0684427EE0F441FFA95E3
:101FB000E1F74195550B0E942A100F9007FE0C94F3
:101FC0001E1008959F3F31F0915020F4879577952A
:101FD0006795B795880F911D9695879597F9089500
:101FE00091505040660F771F881FD2F70895DF93F6
:101FF000CF931F930F93FF92EF92DF927B018C019F
:10200000689406C0DA2EEF010E94F710FE01E894F2
:10201000A5912591359145915591A6F3EF010E9427
:10202000D20DFE019701A801DA9469F7DF90EF90D5
:10203000FF900F911F91CF91DF9108959B01AC010B
:1020400060E070E080E89FE30C9451110C94BC0EAA
:102050000C94E20F0E94EC0ED8F39923C9F3940F6D
:10206000511DA3F39150504094F059F0882332F061
:10207000660F771F881F91505040C1F79E3F510552
:102080002CF7880F911D9695879597F908955F3FD6
:10209000ACF0983E9CF0BB27869577956795B795F1
:1020A00008F4B1609395C1F7BB0F58F711F460FFC6
:1020B000E8CF6F5F7F4F8F4F9F4FE3CF0C94070F99
:1020C00016F00C94E20F0C94C20E68940C94BC0EA3
:1020D0000E94EC0EA8F39923C1F3AEF3DF93CF93E4
:1020E0001F930F93FF92C92FDD2788232AF0219792
:1020F000660F771F881FDAF720E030E040E85FEBDB
:102100009FE3883920F0803E38F021968F770E9437
:10211000BB0DEEE2F1E004C00E94BB0DEBE5F1E087
:102120000E94F70F8B01BE01EC01FB2E6F57710966
:102130007595771F880B990B0E945D0E28E132E799
:1021400041E35FE30E94F710AF2D9801AE01FF90CD
:102150000F911F91CF91DF910E94D20D0C94D30E5D
:10216000FA01DC01AA0FBB1F9B01AC01BF5728F489
:10217000222733274427507820C0B75190F4AB2F43
:102180000024469537952795011CA395D2F300208E
:1021900071F0220F331F441FB395DAF30ED00C9465
:1021A000BA0D61307105A0E88A07B94630F49B0189
:1021B000AC016627772788279078309621F0208316
:1021C00031834283538308950E94F7100C94D30EF9
:1021D0000E94C50E38F00E94CC0E20F0952311F01D
:1021E0000C94BC0E0C94C20E11240C94070F0E9488
:1021F000E40E70F3959FC1F3950F50E0551F629F59
:10220000F001729FBB27F00DB11D639FAA27F00D4F
:10221000B11DAA1F649F6627B00DA11D661F829F76
:102220002227B00DA11D621F739FB00DA11D621F5B
:10223000839FA00D611D221F749F3327A00D611D78
:10224000231F849F600D211D822F762F6A2F11245A
:102250009F5750409AF0F1F088234AF0EE0FFF1F8D
:10226000BB1F661F771F881F91505040A9F79E3FE4
:10227000510580F00C94BC0E0C94070F5F3FE4F303
:10228000983ED4F3869577956795B795F795E7953A
:102290009F5FC1F7FE2B880F911D9695879597F943
:1022A00008950E9465110C94D30E0E94CC0E58F034
:1022B0000E94C50E40F029F45F3F29F00C94BC0E3B
:1022C00051110C94070F0C94C20E0E94E40E68F397
:1022D0009923B1F3552391F3951B550BBB27AA27DF
:1022E00062177307840738F09F5F5F4F220F331F19
:1022F000441FAA1FA9F335D00E2E3AF0E0E832D0E1
:1023000091505040E695001CCAF72BD0FE2F29D0E3
:10231000660F771F881FBB1F261737074807AB07B5
:10232000B0E809F0BB0B802DBF01FF2793585F4F2A
:102330003AF09E3F510578F00C94BC0E0C94070FB8
:102340005F3FE4F3983ED4F3869577956795B7950C
:10235000F7959F5FC9F7880F911D9695879597F917
:102360000895E1E0660F771F881FBB1F6217730790
:102370008407BA0720F0621B730B840BBA0BEE1FA5
:1023800088F7E0950895DB018F939F930E943012A8
:10239000BF91AF91A29F800D911DA39F900DB29F01
:1023A000900D1124089597FB072E16F4009407D082
:1023B00077FD09D00E943B1207FC05D03EF49095B2
:1023C00081959F4F0895709561957F4F0895A1E283
:1023D0001A2EAA1BBB1BFD010DC0AA1FBB1FEE1F9F
:1023E000FF1FA217B307E407F50720F0A21BB30BEA
:1023F000E40BF50B661F771F881F991F1A9469F766
:1024000060957095809590959B01AC01BD01CF01C1
:102410000895052E97FB1EF400940E94201257FD8C
:1024200007D00E94E71107FC03D04EF40C94201251
:1024300050954095309521953F4F4F4F5F4F0895F0
:1024400090958095709561957F4F8F4F9F4F089520
:10245000EE0FFF1F881F8BBF0790F691E02D199498
:102460000E944F12A59F900DB49F900DA49F800DC8
:10247000911D11240895AA1BBB1B51E107C0AA1F7F
:10248000BB1FA617B70710F0A61BB70B881F991F15
:102490005A95A9F780959095BC01CD010895A29F0A
:1024A000B001B39FC001A39F700D811D1124911D28
:1024B000B29F700D811D1124911D0895F894FFCFD6
:1024C000000000002502EF02C5028902A9027E0277
:1024D000507269766174655F6B657920646F6D61B8
:1024E000696E206572726F72005468697320617240
:1024F0006475696E6F2773206D6F643A20005075A4
:10250000626C6963206B65793A200050726976616C
:102510007465206B65793A2000705F76616C756533
:10252000206572726F7200715F76616C75652065EF
:1025300072726F72006D6F645F76616C7565206595
:1025400072726F72007075626C69635F6B6579207F
:102550006E6F7420646F6D61696E00496E207365E3
:10256000727665723D3D7472756500696E204C49E6
:102570005354454E20737461746500696E20574151
:102580004954494E47464F524B4559207374617424
:102590006500696E2057414954494E47464F5241A4
:1025A000434B20737461746500696E20535441522B
:1025B00054207374617465006265666F726520698A
:1025C0006E66696E7465207768696C65206C6F6FE4
:1025D000700069732066616C730069732074727592
:0225E0000000F9
:00000001FF
